{
  "contractName": "EIP712MetaTransaction",
  "abi": [
    {
      "inputs": [
        {
          "internalType": "string",
          "name": "name",
          "type": "string"
        },
        {
          "internalType": "string",
          "name": "version",
          "type": "string"
        },
        {
          "internalType": "uint256",
          "name": "chaiId",
          "type": "uint256"
        }
      ],
      "payable": false,
      "stateMutability": "nonpayable",
      "type": "constructor"
    },
    {
      "anonymous": false,
      "inputs": [
        {
          "indexed": false,
          "internalType": "address",
          "name": "userAddress",
          "type": "address"
        },
        {
          "indexed": false,
          "internalType": "address payable",
          "name": "relayerAddress",
          "type": "address"
        },
        {
          "indexed": false,
          "internalType": "bytes",
          "name": "functionSignature",
          "type": "bytes"
        }
      ],
      "name": "MetaTransactionExecuted",
      "type": "event"
    },
    {
      "payable": true,
      "stateMutability": "payable",
      "type": "fallback"
    },
    {
      "constant": false,
      "inputs": [
        {
          "internalType": "address",
          "name": "userAddress",
          "type": "address"
        },
        {
          "internalType": "bytes",
          "name": "functionSignature",
          "type": "bytes"
        },
        {
          "internalType": "bytes32",
          "name": "sigR",
          "type": "bytes32"
        },
        {
          "internalType": "bytes32",
          "name": "sigS",
          "type": "bytes32"
        },
        {
          "internalType": "uint8",
          "name": "sigV",
          "type": "uint8"
        }
      ],
      "name": "executeMetaTransaction",
      "outputs": [
        {
          "internalType": "bytes",
          "name": "",
          "type": "bytes"
        }
      ],
      "payable": true,
      "stateMutability": "payable",
      "type": "function"
    },
    {
      "constant": true,
      "inputs": [
        {
          "internalType": "address",
          "name": "user",
          "type": "address"
        }
      ],
      "name": "getNonce",
      "outputs": [
        {
          "internalType": "uint256",
          "name": "nonce",
          "type": "uint256"
        }
      ],
      "payable": false,
      "stateMutability": "view",
      "type": "function"
    }
  ],
  "bytecode": "0x60806040523480156200001157600080fd5b50604051620010d5380380620010d583398181016040526200003791908101906200011e565b82828260405180608001604052806052815260200162001083605291398051906020012083805190602001208380519060200120833060405160200162000083959493929190620001d9565b6040516020818303038152906040528051906020012060008190555050505050505062000329565b600082601f830112620000bd57600080fd5b8151620000d4620000ce8262000264565b62000236565b91508082526020830160208301858383011115620000f157600080fd5b620000fe838284620002d9565b50505092915050565b60008151905062000118816200030f565b92915050565b6000806000606084860312156200013457600080fd5b600084015167ffffffffffffffff8111156200014f57600080fd5b6200015d86828701620000ab565b935050602084015167ffffffffffffffff8111156200017b57600080fd5b6200018986828701620000ab565b92505060406200019c8682870162000107565b9150509250925092565b620001b18162000291565b82525050565b620001c281620002a5565b82525050565b620001d381620002cf565b82525050565b600060a082019050620001f06000830188620001b7565b620001ff6020830187620001b7565b6200020e6040830186620001b7565b6200021d6060830185620001c8565b6200022c6080830184620001a6565b9695505050505050565b6000604051905081810181811067ffffffffffffffff821117156200025a57600080fd5b8060405250919050565b600067ffffffffffffffff8211156200027c57600080fd5b601f19601f8301169050602081019050919050565b60006200029e82620002af565b9050919050565b6000819050919050565b600073ffffffffffffffffffffffffffffffffffffffff82169050919050565b6000819050919050565b60005b83811015620002f9578082015181840152602081019050620002dc565b8381111562000309576000848401525b50505050565b6200031a81620002cf565b81146200032657600080fd5b50565b610d4a80620003396000396000f3fe6080604052600436106100295760003560e01c80630c53c51c1461002b5780632d0335ab1461005b575b005b610045600480360361004091908101906105f0565b610098565b6040516100529190610a36565b60405180910390f35b34801561006757600080fd5b50610082600480360361007d91908101906105c7565b610312565b60405161008f9190610ab8565b60405180910390f35b60606100a26104fd565b6040518060600160405280600160008a73ffffffffffffffffffffffffffffffffffffffff1673ffffffffffffffffffffffffffffffffffffffff1681526020019081526020016000205481526020018873ffffffffffffffffffffffffffffffffffffffff168152602001878152509050610121878287878761035b565b610160576040517f08c379a000000000000000000000000000000000000000000000000000000000815260040161015790610a98565b60405180910390fd5b600060603073ffffffffffffffffffffffffffffffffffffffff16888a33604051602001610190939291906108fe565b6040516020818303038152906040526040516101ac91906108e7565b6000604051808303816000865af19150503d80600081146101e9576040519150601f19603f3d011682016040523d82523d6000602084013e6101ee565b606091505b509150915081610233576040517f08c379a000000000000000000000000000000000000000000000000000000000815260040161022a90610a78565b60405180910390fd5b61028560018060008c73ffffffffffffffffffffffffffffffffffffffff1673ffffffffffffffffffffffffffffffffffffffff168152602001908152602001600020546103f590919063ffffffff16565b600160008b73ffffffffffffffffffffffffffffffffffffffff1673ffffffffffffffffffffffffffffffffffffffff168152602001908152602001600020819055507f5845892132946850460bff5a0083f71031bc5bf9aadcd40f1de79423eac9b10b89338a6040516102fb9392919061096e565b60405180910390a180935050505095945050505050565b6000600160008373ffffffffffffffffffffffffffffffffffffffff1673ffffffffffffffffffffffffffffffffffffffff168152602001908152602001600020549050919050565b6000600161037061036b87610445565b6104bb565b8386866040516000815260200160405260405161039094939291906109f1565b6020604051602081039080840390855afa1580156103b2573d6000803e3d6000fd5b5050506020604051035173ffffffffffffffffffffffffffffffffffffffff168673ffffffffffffffffffffffffffffffffffffffff1614905095945050505050565b600082828401915081101561043f576040517f08c379a000000000000000000000000000000000000000000000000000000000815260040161043690610a58565b60405180910390fd5b92915050565b6000604051806080016040528060438152602001610cc5604391398051906020012082600001518360200151846040015160405161048391906108d0565b604051809103902060405160200161049e94939291906109ac565b604051602081830303815290604052805190602001209050919050565b60006104c56104f4565b826040516020016104d7929190610937565b604051602081830303815290604052805190602001209050919050565b60008054905090565b604051806060016040528060008152602001600073ffffffffffffffffffffffffffffffffffffffff168152602001606081525090565b60008135905061054381610c7f565b92915050565b60008135905061055881610c96565b92915050565b600082601f83011261056f57600080fd5b813561058261057d82610b00565b610ad3565b9150808252602083016020830185838301111561059e57600080fd5b6105a9838284610bdf565b50505092915050565b6000813590506105c181610cad565b92915050565b6000602082840312156105d957600080fd5b60006105e784828501610534565b91505092915050565b600080600080600060a0868803121561060857600080fd5b600061061688828901610534565b955050602086013567ffffffffffffffff81111561063357600080fd5b61063f8882890161055e565b945050604061065088828901610549565b935050606061066188828901610549565b9250506080610672888289016105b2565b9150509295509295909350565b61068881610b8c565b82525050565b61069f61069a82610b8c565b610c33565b82525050565b6106ae81610b7a565b82525050565b6106c56106c082610b7a565b610c21565b82525050565b6106d481610b9e565b82525050565b6106eb6106e682610b9e565b610c45565b82525050565b60006106fc82610b37565b6107068185610b42565b9350610716818560208601610bee565b61071f81610c61565b840191505092915050565b600061073582610b37565b61073f8185610b53565b935061074f818560208601610bee565b80840191505092915050565b600061076682610b2c565b6107708185610b53565b9350610780818560208601610bee565b80840191505092915050565b6000610799600283610b6f565b91507f19010000000000000000000000000000000000000000000000000000000000006000830152600282019050919050565b60006107d9601483610b5e565b91507f64732d6d6174682d6164642d6f766572666c6f770000000000000000000000006000830152602082019050919050565b6000610819601d83610b5e565b91507f46756e6374696f6e2063616c6c206e6f74207375636365737366756c6c0000006000830152602082019050919050565b6000610859602183610b5e565b91507f5369676e657220616e64207369676e617475726520646f206e6f74206d61746360008301527f68000000000000000000000000000000000000000000000000000000000000006020830152604082019050919050565b6108bb81610bc8565b82525050565b6108ca81610bd2565b82525050565b60006108dc828461075b565b915081905092915050565b60006108f3828461072a565b915081905092915050565b600061090a828661072a565b915061091682856106b4565b601482019150610926828461068e565b601482019150819050949350505050565b60006109428261078c565b915061094e82856106da565b60208201915061095e82846106da565b6020820191508190509392505050565b600060608201905061098360008301866106a5565b610990602083018561067f565b81810360408301526109a281846106f1565b9050949350505050565b60006080820190506109c160008301876106cb565b6109ce60208301866108b2565b6109db60408301856106a5565b6109e860608301846106cb565b95945050505050565b6000608082019050610a0660008301876106cb565b610a1360208301866108c1565b610a2060408301856106cb565b610a2d60608301846106cb565b95945050505050565b60006020820190508181036000830152610a5081846106f1565b905092915050565b60006020820190508181036000830152610a71816107cc565b9050919050565b60006020820190508181036000830152610a918161080c565b9050919050565b60006020820190508181036000830152610ab18161084c565b9050919050565b6000602082019050610acd60008301846108b2565b92915050565b6000604051905081810181811067ffffffffffffffff82111715610af657600080fd5b8060405250919050565b600067ffffffffffffffff821115610b1757600080fd5b601f19601f8301169050602081019050919050565b600081519050919050565b600081519050919050565b600082825260208201905092915050565b600081905092915050565b600082825260208201905092915050565b600081905092915050565b6000610b8582610ba8565b9050919050565b6000610b9782610ba8565b9050919050565b6000819050919050565b600073ffffffffffffffffffffffffffffffffffffffff82169050919050565b6000819050919050565b600060ff82169050919050565b82818337600083830152505050565b60005b83811015610c0c578082015181840152602081019050610bf1565b83811115610c1b576000848401525b50505050565b6000610c2c82610c4f565b9050919050565b6000610c3e82610c4f565b9050919050565b6000819050919050565b6000610c5a82610c72565b9050919050565b6000601f19601f8301169050919050565b60008160601b9050919050565b610c8881610b7a565b8114610c9357600080fd5b50565b610c9f81610b9e565b8114610caa57600080fd5b50565b610cb681610bd2565b8114610cc157600080fd5b5056fe4d6574615472616e73616374696f6e2875696e74323536206e6f6e63652c616464726573732066726f6d2c62797465732066756e6374696f6e5369676e617475726529a365627a7a723158208330d000abad2a9a5bbbe756dde3f618b88b5ac5c7e28994688b178ed4cf1c626c6578706572696d656e74616cf564736f6c63430005100040454950373132446f6d61696e28737472696e67206e616d652c737472696e672076657273696f6e2c75696e7432353620636861696e49642c6164647265737320766572696679696e67436f6e747261637429",
  "source": "pragma solidity ^0.5.13;\npragma experimental ABIEncoderV2;\n\nimport \"./libraries/EIP712Base.sol\";\nimport \"./libraries/SafeMath.sol\";\n\ncontract EIP712MetaTransaction is EIP712Base {\n    using SafeMath for uint256;\n    bytes32 private constant META_TRANSACTION_TYPEHASH = keccak256(bytes(\"MetaTransaction(uint256 nonce,address from,bytes functionSignature)\"));\n\n    event MetaTransactionExecuted(address userAddress, address payable relayerAddress, bytes functionSignature);\n    mapping(address => uint256) nonces;\n\n    /*\n     * Meta transaction structure.\n     * No point of including value field here as if user is doing value transfer then he has the funds to pay for gas\n     * He should call the desired function directly in that case.\n     */\n    struct MetaTransaction {\n\t\tuint256 nonce;\n\t\taddress from;\n        bytes functionSignature;\n\t}\n\n    constructor(string memory name, string memory version,uint chaiId) public EIP712Base(name, version,chaiId) {}\n\n    function executeMetaTransaction(address userAddress,\n        bytes memory functionSignature, bytes32 sigR, bytes32 sigS, uint8 sigV) public payable returns(bytes memory) {\n\n        MetaTransaction memory metaTx = MetaTransaction({\n            nonce: nonces[userAddress],\n            from: userAddress,\n            functionSignature: functionSignature\n        });\n        require(verify(userAddress, metaTx, sigR, sigS, sigV), \"Signer and signature do not match\");\n        // Append userAddress and relayer address at the end to extract it from calling context\n        (bool success, bytes memory returnData) = address(this).call(abi.encodePacked(functionSignature, userAddress, msg.sender));\n\n        require(success, \"Function call not successfull\");\n        nonces[userAddress] = nonces[userAddress].add(1);\n        emit MetaTransactionExecuted(userAddress, msg.sender, functionSignature);\n        return returnData;\n    }\n\n    function hashMetaTransaction(MetaTransaction memory metaTx) internal view returns (bytes32) {\n\t\treturn keccak256(abi.encode(\n            META_TRANSACTION_TYPEHASH,\n            metaTx.nonce,\n            metaTx.from,\n            keccak256(metaTx.functionSignature)\n        ));\n\t}\n\n    function getNonce(address user) public view returns(uint256 nonce) {\n        nonce = nonces[user];\n    }\n\n    function verify(address signer, MetaTransaction memory metaTx, bytes32 sigR, bytes32 sigS, uint8 sigV) internal view returns (bool) {\n\t\treturn signer == ecrecover(toTypedMessageHash(hashMetaTransaction(metaTx)), sigV, sigR, sigS);\n\t}\n\n    function msgSender() internal view returns(address sender) {\n        if(msg.sender == address(this)) {\n            bytes20 userAddress;\n            bytes memory data = msg.data;\n            uint256 dataLength = msg.data.length;\n            assembly {\n                calldatacopy(0x0, sub(dataLength, 40), sub(dataLength, 20))\n                userAddress := mload(0x0)\n            }\n            sender = address(uint160(userAddress));\n        } else {\n            sender = msg.sender;\n        }\n    }\n\n    function msgRelayer() internal view returns(address relayer) {\n        if(msg.sender == address(this)) {\n            bytes20 relayerAddress;\n            bytes memory data = msg.data;\n            uint256 dataLength = msg.data.length;\n            assembly {\n                calldatacopy(0x0, sub(dataLength, 20), dataLength)\n                relayerAddress := mload(0x0)\n            }\n            relayer = address(uint160(relayerAddress));\n        }\n    }\n\n\n\n    // To recieve ether in contract\n    function() external payable { }\n}\n",
  "sourcePath": "/home/safu/ethereum/maticUniswap/forgit/final/maticUniswap/contracts/EIP712MetaTransaction.sol",
  "compiler": {
    "name": "solc",
    "version": "0.5.16+commit.9c3226ce.Emscripten.clang"
  },
  "schemaVersion": "3.0.23",
  "updatedAt": "2020-04-13T08:33:58.404Z",
  "devdoc": {
    "methods": {}
  },
  "userdoc": {
    "methods": {}
  }
}