{
  "contractName": "ExampleFlashSwap",
  "abi": [
    {
      "inputs": [
        {
          "internalType": "address",
          "name": "_factoryV1",
          "type": "address"
        }
      ],
      "payable": false,
      "stateMutability": "nonpayable",
      "type": "constructor"
    },
    {
      "payable": true,
      "stateMutability": "payable",
      "type": "fallback"
    },
    {
      "constant": true,
      "inputs": [],
      "name": "WETH",
      "outputs": [
        {
          "internalType": "contract IWETH",
          "name": "",
          "type": "address"
        }
      ],
      "payable": false,
      "stateMutability": "view",
      "type": "function"
    },
    {
      "constant": true,
      "inputs": [],
      "name": "factory",
      "outputs": [
        {
          "internalType": "contract IUniswapV2Factory",
          "name": "",
          "type": "address"
        }
      ],
      "payable": false,
      "stateMutability": "view",
      "type": "function"
    },
    {
      "constant": true,
      "inputs": [],
      "name": "factoryV1",
      "outputs": [
        {
          "internalType": "contract IUniswapV1Factory",
          "name": "",
          "type": "address"
        }
      ],
      "payable": false,
      "stateMutability": "view",
      "type": "function"
    },
    {
      "constant": true,
      "inputs": [
        {
          "internalType": "uint256",
          "name": "amountOut",
          "type": "uint256"
        },
        {
          "internalType": "uint256",
          "name": "reserveIn",
          "type": "uint256"
        },
        {
          "internalType": "uint256",
          "name": "reserveOut",
          "type": "uint256"
        }
      ],
      "name": "getAmountIn",
      "outputs": [
        {
          "internalType": "uint256",
          "name": "amountIn",
          "type": "uint256"
        }
      ],
      "payable": false,
      "stateMutability": "pure",
      "type": "function"
    },
    {
      "constant": true,
      "inputs": [
        {
          "internalType": "uint256",
          "name": "amountIn",
          "type": "uint256"
        },
        {
          "internalType": "uint256",
          "name": "reserveIn",
          "type": "uint256"
        },
        {
          "internalType": "uint256",
          "name": "reserveOut",
          "type": "uint256"
        }
      ],
      "name": "getAmountOut",
      "outputs": [
        {
          "internalType": "uint256",
          "name": "amountOut",
          "type": "uint256"
        }
      ],
      "payable": false,
      "stateMutability": "pure",
      "type": "function"
    },
    {
      "constant": true,
      "inputs": [
        {
          "internalType": "uint256",
          "name": "amountOut",
          "type": "uint256"
        },
        {
          "internalType": "address[]",
          "name": "path",
          "type": "address[]"
        }
      ],
      "name": "getAmountsIn",
      "outputs": [
        {
          "internalType": "uint256[]",
          "name": "amounts",
          "type": "uint256[]"
        }
      ],
      "payable": false,
      "stateMutability": "view",
      "type": "function"
    },
    {
      "constant": true,
      "inputs": [
        {
          "internalType": "uint256",
          "name": "amountIn",
          "type": "uint256"
        },
        {
          "internalType": "address[]",
          "name": "path",
          "type": "address[]"
        }
      ],
      "name": "getAmountsOut",
      "outputs": [
        {
          "internalType": "uint256[]",
          "name": "amounts",
          "type": "uint256[]"
        }
      ],
      "payable": false,
      "stateMutability": "view",
      "type": "function"
    },
    {
      "constant": true,
      "inputs": [
        {
          "internalType": "uint256",
          "name": "amountA",
          "type": "uint256"
        },
        {
          "internalType": "uint256",
          "name": "reserveA",
          "type": "uint256"
        },
        {
          "internalType": "uint256",
          "name": "reserveB",
          "type": "uint256"
        }
      ],
      "name": "quote",
      "outputs": [
        {
          "internalType": "uint256",
          "name": "amountB",
          "type": "uint256"
        }
      ],
      "payable": false,
      "stateMutability": "pure",
      "type": "function"
    },
    {
      "constant": false,
      "inputs": [
        {
          "internalType": "address",
          "name": "sender",
          "type": "address"
        },
        {
          "internalType": "uint256",
          "name": "amount0",
          "type": "uint256"
        },
        {
          "internalType": "uint256",
          "name": "amount1",
          "type": "uint256"
        },
        {
          "internalType": "bytes",
          "name": "data",
          "type": "bytes"
        }
      ],
      "name": "uniswapV2Call",
      "outputs": [],
      "payable": false,
      "stateMutability": "nonpayable",
      "type": "function"
    }
  ],
  "bytecode": "0x608060405234801561001057600080fd5b506040516121353803806121358339818101604052602081101561003357600080fd5b81019080805190602001909291905050507384e924c5e04438d2c1df1a981f7e7104952e6de1806000806101000a81548173ffffffffffffffffffffffffffffffffffffffff021916908373ffffffffffffffffffffffffffffffffffffffff1602179055505080600160006101000a81548173ffffffffffffffffffffffffffffffffffffffff021916908373ffffffffffffffffffffffffffffffffffffffff1602179055507384e924c5e04438d2c1df1a981f7e7104952e6de173ffffffffffffffffffffffffffffffffffffffff1663ad5c46486040518163ffffffff1660e01b815260040160206040518083038186803b15801561013557600080fd5b505afa158015610149573d6000803e3d6000fd5b505050506040513d602081101561015f57600080fd5b8101908080519060200190929190505050600260006101000a81548173ffffffffffffffffffffffffffffffffffffffff021916908373ffffffffffffffffffffffffffffffffffffffff16021790555050611f75806101c06000396000f3fe6080604052600436106100865760003560e01c806385f8c2591161005957806385f8c25914610320578063ad5c464814610383578063ad615dec146103da578063c45a01551461043d578063d06ca61f1461049457610086565b8063054d50d41461008857806310d1e85c146100eb5780631f00ca74146101a55780633957f453146102c9575b005b34801561009457600080fd5b506100d5600480360360608110156100ab57600080fd5b810190808035906020019092919080359060200190929190803590602001909291905050506105b8565b6040518082815260200191505060405180910390f35b3480156100f757600080fd5b506101a36004803603608081101561010e57600080fd5b81019080803573ffffffffffffffffffffffffffffffffffffffff16906020019092919080359060200190929190803590602001909291908035906020019064010000000081111561015f57600080fd5b82018360208201111561017157600080fd5b8035906020019184600183028401116401000000008311171561019357600080fd5b90919293919293905050506106e8565b005b3480156101b157600080fd5b50610272600480360360408110156101c857600080fd5b8101908080359060200190929190803590602001906401000000008111156101ef57600080fd5b82018360208201111561020157600080fd5b8035906020019184602083028401116401000000008311171561022357600080fd5b919080806020026020016040519081016040528093929190818152602001838360200280828437600081840152601f19601f8201169050808301925050505050505091929192905050506113c1565b6040518080602001828103825283818151815260200191508051906020019060200280838360005b838110156102b557808201518184015260208101905061029a565b505050509050019250505060405180910390f35b3480156102d557600080fd5b506102de611528565b604051808273ffffffffffffffffffffffffffffffffffffffff1673ffffffffffffffffffffffffffffffffffffffff16815260200191505060405180910390f35b34801561032c57600080fd5b5061036d6004803603606081101561034357600080fd5b8101908080359060200190929190803590602001909291908035906020019092919050505061154e565b6040518082815260200191505060405180910390f35b34801561038f57600080fd5b5061039861168b565b604051808273ffffffffffffffffffffffffffffffffffffffff1673ffffffffffffffffffffffffffffffffffffffff16815260200191505060405180910390f35b3480156103e657600080fd5b50610427600480360360608110156103fd57600080fd5b810190808035906020019092919080359060200190929190803590602001909291905050506116b1565b6040518082815260200191505060405180910390f35b34801561044957600080fd5b50610452611795565b604051808273ffffffffffffffffffffffffffffffffffffffff1673ffffffffffffffffffffffffffffffffffffffff16815260200191505060405180910390f35b3480156104a057600080fd5b50610561600480360360408110156104b757600080fd5b8101908080359060200190929190803590602001906401000000008111156104de57600080fd5b8201836020820111156104f057600080fd5b8035906020019184602083028401116401000000008311171561051257600080fd5b919080806020026020016040519081016040528093929190818152602001838360200280828437600081840152601f19601f8201169050808301925050505050505091929192905050506117ba565b6040518080602001828103825283818151815260200191508051906020019060200280838360005b838110156105a4578082015181840152602081019050610589565b505050509050019250505060405180910390f35b6000808411610612576040517f08c379a000000000000000000000000000000000000000000000000000000000815260040180806020018281038252602a815260200180611ef3602a913960400191505060405180910390fd5b6000831180156106225750600082115b610677576040517f08c379a0000000000000000000000000000000000000000000000000000000008152600401808060200182810382526027815260200180611e7d6027913960400191505060405180910390fd5b600061068e6103e58661191990919063ffffffff16565b905060006106a5848361191990919063ffffffff16565b905060006106d0836106c26103e88961191990919063ffffffff16565b6119ae90919063ffffffff16565b90508082816106db57fe5b0493505050509392505050565b6060600260405190808252806020026020018201604052801561071a5781602001602082028038833980820191505090505b50905060008060003373ffffffffffffffffffffffffffffffffffffffff16630dfe16816040518163ffffffff1660e01b815260040160206040518083038186803b15801561076857600080fd5b505afa15801561077c573d6000803e3d6000fd5b505050506040513d602081101561079257600080fd5b8101908080519060200190929190505050905060003373ffffffffffffffffffffffffffffffffffffffff1663d21220a76040518163ffffffff1660e01b815260040160206040518083038186803b1580156107ed57600080fd5b505afa158015610801573d6000803e3d6000fd5b505050506040513d602081101561081757600080fd5b810190808051906020019092919050505090506108348282611a31565b73ffffffffffffffffffffffffffffffffffffffff163373ffffffffffffffffffffffffffffffffffffffff161461086857fe5b60008914806108775750600088145b61087d57fe5b6000891461088b578061088d565b815b8560008151811061089a57fe5b602002602001019073ffffffffffffffffffffffffffffffffffffffff16908173ffffffffffffffffffffffffffffffffffffffff1681525050600089146108e257816108e4565b805b856001815181106108f157fe5b602002602001019073ffffffffffffffffffffffffffffffffffffffff16908173ffffffffffffffffffffffffffffffffffffffff1681525050600260009054906101000a900473ffffffffffffffffffffffffffffffffffffffff1673ffffffffffffffffffffffffffffffffffffffff168273ffffffffffffffffffffffffffffffffffffffff16146109865788610988565b875b9350600260009054906101000a900473ffffffffffffffffffffffffffffffffffffffff1673ffffffffffffffffffffffffffffffffffffffff168273ffffffffffffffffffffffffffffffffffffffff16146109e557876109e7565b885b92505050600260009054906101000a900473ffffffffffffffffffffffffffffffffffffffff1673ffffffffffffffffffffffffffffffffffffffff1683600081518110610a3157fe5b602002602001015173ffffffffffffffffffffffffffffffffffffffff161480610abc5750600260009054906101000a900473ffffffffffffffffffffffffffffffffffffffff1673ffffffffffffffffffffffffffffffffffffffff1683600181518110610a9c57fe5b602002602001015173ffffffffffffffffffffffffffffffffffffffff16145b610ac257fe5b6000600260009054906101000a900473ffffffffffffffffffffffffffffffffffffffff1673ffffffffffffffffffffffffffffffffffffffff1684600081518110610b0a57fe5b602002602001015173ffffffffffffffffffffffffffffffffffffffff1614610b475783600081518110610b3a57fe5b6020026020010151610b5d565b83600181518110610b5457fe5b60200260200101515b90506000600160009054906101000a900473ffffffffffffffffffffffffffffffffffffffff1673ffffffffffffffffffffffffffffffffffffffff166306f2bf62836040518263ffffffff1660e01b8152600401808273ffffffffffffffffffffffffffffffffffffffff1673ffffffffffffffffffffffffffffffffffffffff16815260200191505060206040518083038186803b158015610c0057600080fd5b505afa158015610c14573d6000803e3d6000fd5b505050506040513d6020811015610c2a57600080fd5b81019080805190602001909291905050509050600084111561108757600087876020811015610c5857600080fd5b810190808035906020019092919050505090508273ffffffffffffffffffffffffffffffffffffffff1663095ea7b383876040518363ffffffff1660e01b8152600401808373ffffffffffffffffffffffffffffffffffffffff1673ffffffffffffffffffffffffffffffffffffffff16815260200182815260200192505050602060405180830381600087803b158015610cf257600080fd5b505af1158015610d06573d6000803e3d6000fd5b505050506040513d6020811015610d1c57600080fd5b81019080805190602001909291905050505060008273ffffffffffffffffffffffffffffffffffffffff166395e3c50b87847fffffffffffffffffffffffffffffffffffffffffffffffffffffffffffffffff6040518463ffffffff1660e01b8152600401808481526020018381526020018281526020019350505050602060405180830381600087803b158015610db357600080fd5b505af1158015610dc7573d6000803e3d6000fd5b505050506040513d6020811015610ddd57600080fd5b810190808051906020019092919050505090506000610dfc87896113c1565b600081518110610e0857fe5b60200260200101519050808211610e1b57fe5b600260009054906101000a900473ffffffffffffffffffffffffffffffffffffffff1673ffffffffffffffffffffffffffffffffffffffff1663d0e30db0826040518263ffffffff1660e01b81526004016000604051808303818588803b158015610e8557600080fd5b505af1158015610e99573d6000803e3d6000fd5b5050505050600260009054906101000a900473ffffffffffffffffffffffffffffffffffffffff1673ffffffffffffffffffffffffffffffffffffffff1663a9059cbb33836040518363ffffffff1660e01b8152600401808373ffffffffffffffffffffffffffffffffffffffff1673ffffffffffffffffffffffffffffffffffffffff16815260200182815260200192505050602060405180830381600087803b158015610f4757600080fd5b505af1158015610f5b573d6000803e3d6000fd5b505050506040513d6020811015610f7157600080fd5b8101908080519060200190929190505050610f8857fe5b60008d73ffffffffffffffffffffffffffffffffffffffff1682840360006040519080825280601f01601f191660200182016040528015610fd85781602001600182028038833980820191505090505b506040518082805190602001908083835b6020831061100c5780518252602082019150602081019050602083039250610fe9565b6001836020036101000a03801982511681845116808217855250505050505090500191505060006040518083038185875af1925050503d806000811461106e576040519150601f19603f3d011682016040523d82523d6000602084013e611073565b606091505b505090508061107e57fe5b505050506113b5565b60008787602081101561109957600080fd5b81019080803590602001909291905050509050600260009054906101000a900473ffffffffffffffffffffffffffffffffffffffff1673ffffffffffffffffffffffffffffffffffffffff16632e1a7d4d856040518263ffffffff1660e01b815260040180828152602001915050600060405180830381600087803b15801561112157600080fd5b505af1158015611135573d6000803e3d6000fd5b5050505060008273ffffffffffffffffffffffffffffffffffffffff1663f39b5b9b86847fffffffffffffffffffffffffffffffffffffffffffffffffffffffffffffffff6040518463ffffffff1660e01b815260040180838152602001828152602001925050506020604051808303818588803b1580156111b657600080fd5b505af11580156111ca573d6000803e3d6000fd5b50505050506040513d60208110156111e157600080fd5b81019080805190602001909291905050509050600061120086896113c1565b60008151811061120c57fe5b6020026020010151905080821161121f57fe5b8473ffffffffffffffffffffffffffffffffffffffff1663a9059cbb33836040518363ffffffff1660e01b8152600401808373ffffffffffffffffffffffffffffffffffffffff1673ffffffffffffffffffffffffffffffffffffffff16815260200182815260200192505050602060405180830381600087803b1580156112a657600080fd5b505af11580156112ba573d6000803e3d6000fd5b505050506040513d60208110156112d057600080fd5b81019080805190602001909291905050506112e757fe5b8473ffffffffffffffffffffffffffffffffffffffff1663a9059cbb8e8385036040518363ffffffff1660e01b8152600401808373ffffffffffffffffffffffffffffffffffffffff1673ffffffffffffffffffffffffffffffffffffffff16815260200182815260200192505050602060405180830381600087803b15801561137057600080fd5b505af1158015611384573d6000803e3d6000fd5b505050506040513d602081101561139a57600080fd5b81019080805190602001909291905050506113b157fe5b5050505b50505050505050505050565b606060028251101561143b576040517f08c379a000000000000000000000000000000000000000000000000000000000815260040180806020018281038252601d8152602001807f556e6973776170563248656c7065723a20494e56414c49445f5041544800000081525060200191505060405180910390fd5b815160405190808252806020026020018201604052801561146b5781602001602082028038833980820191505090505b509050828160018351038151811061147f57fe5b6020026020010181815250506000600183510390505b6000811115611521576000806114d48560018503815181106114b357fe5b60200260200101518685815181106114c757fe5b6020026020010151611b5b565b915091506114f68484815181106114e757fe5b6020026020010151838361154e565b84600185038151811061150557fe5b6020026020010181815250505050808060019003915050611495565b5092915050565b600160009054906101000a900473ffffffffffffffffffffffffffffffffffffffff1681565b60008084116115a8576040517f08c379a000000000000000000000000000000000000000000000000000000000815260040180806020018281038252602b815260200180611ea4602b913960400191505060405180910390fd5b6000831180156115b85750600082115b61160d576040517f08c379a0000000000000000000000000000000000000000000000000000000008152600401808060200182810382526027815260200180611e7d6027913960400191505060405180910390fd5b60006116366103e8611628878761191990919063ffffffff16565b61191990919063ffffffff16565b905060006116616103e56116538887611c8290919063ffffffff16565b61191990919063ffffffff16565b9050611680600182848161167157fe5b046119ae90919063ffffffff16565b925050509392505050565b600260009054906101000a900473ffffffffffffffffffffffffffffffffffffffff1681565b600080841161170b576040517f08c379a0000000000000000000000000000000000000000000000000000000008152600401808060200182810382526024815260200180611f1d6024913960400191505060405180910390fd5b60008311801561171b5750600082115b611770576040517f08c379a0000000000000000000000000000000000000000000000000000000008152600401808060200182810382526027815260200180611e7d6027913960400191505060405180910390fd5b82611784838661191990919063ffffffff16565b8161178b57fe5b0490509392505050565b6000809054906101000a900473ffffffffffffffffffffffffffffffffffffffff1681565b6060600282511015611834576040517f08c379a000000000000000000000000000000000000000000000000000000000815260040180806020018281038252601d8152602001807f556e6973776170563248656c7065723a20494e56414c49445f5041544800000081525060200191505060405180910390fd5b81516040519080825280602002602001820160405280156118645781602001602082028038833980820191505090505b509050828160008151811061187557fe5b60200260200101818152505060005b6001835103811015611912576000806118c68584815181106118a257fe5b60200260200101518660018601815181106118b957fe5b6020026020010151611b5b565b915091506118e88484815181106118d957fe5b602002602001015183836105b8565b8460018501815181106118f757fe5b60200260200101818152505050508080600101915050611884565b5092915050565b600080821480611936575082828385029250828161193357fe5b04145b6119a8576040517f08c379a00000000000000000000000000000000000000000000000000000000081526004018080602001828103825260148152602001807f64732d6d6174682d6d756c2d6f766572666c6f7700000000000000000000000081525060200191505060405180910390fd5b92915050565b6000828284019150811015611a2b576040517f08c379a00000000000000000000000000000000000000000000000000000000081526004018080602001828103825260148152602001807f64732d6d6174682d6164642d6f766572666c6f7700000000000000000000000081525060200191505060405180910390fd5b92915050565b6000806000611a408585611d05565b915091506000809054906101000a900473ffffffffffffffffffffffffffffffffffffffff1673ffffffffffffffffffffffffffffffffffffffff1663e6a4390583836040518363ffffffff1660e01b8152600401808373ffffffffffffffffffffffffffffffffffffffff1673ffffffffffffffffffffffffffffffffffffffff1681526020018273ffffffffffffffffffffffffffffffffffffffff1673ffffffffffffffffffffffffffffffffffffffff1681526020019250505060206040518083038186803b158015611b1657600080fd5b505afa158015611b2a573d6000803e3d6000fd5b505050506040513d6020811015611b4057600080fd5b81019080805190602001909291905050509250505092915050565b6000806000611b6a8585611d05565b509050600080611b7a8787611a31565b73ffffffffffffffffffffffffffffffffffffffff16630902f1ac6040518163ffffffff1660e01b815260040160606040518083038186803b158015611bbf57600080fd5b505afa158015611bd3573d6000803e3d6000fd5b505050506040513d6060811015611be957600080fd5b81019080805190602001909291908051906020019092919080519060200190929190505050506dffffffffffffffffffffffffffff1691506dffffffffffffffffffffffffffff1691508273ffffffffffffffffffffffffffffffffffffffff168773ffffffffffffffffffffffffffffffffffffffff1614611c6d578082611c70565b81815b80955081965050505050509250929050565b6000828284039150811115611cff576040517f08c379a00000000000000000000000000000000000000000000000000000000081526004018080602001828103825260158152602001807f64732d6d6174682d7375622d756e646572666c6f77000000000000000000000081525060200191505060405180910390fd5b92915050565b6000808273ffffffffffffffffffffffffffffffffffffffff168473ffffffffffffffffffffffffffffffffffffffff161415611d8d576040517f08c379a0000000000000000000000000000000000000000000000000000000008152600401808060200182810382526024815260200180611ecf6024913960400191505060405180910390fd5b8273ffffffffffffffffffffffffffffffffffffffff168473ffffffffffffffffffffffffffffffffffffffff1610611dc7578284611dca565b83835b8092508193505050600073ffffffffffffffffffffffffffffffffffffffff168273ffffffffffffffffffffffffffffffffffffffff161415611e75576040517f08c379a000000000000000000000000000000000000000000000000000000000815260040180806020018281038252601d8152602001807f556e6973776170563248656c7065723a205a45524f5f4144445245535300000081525060200191505060405180910390fd5b925092905056fe556e6973776170563248656c7065723a20494e53554646494349454e545f4c4951554944495459556e6973776170563248656c7065723a20494e53554646494349454e545f4f55545055545f414d4f554e54556e6973776170563248656c7065723a204944454e544943414c5f414444524553534553556e6973776170563248656c7065723a20494e53554646494349454e545f494e5055545f414d4f554e54556e6973776170563248656c7065723a20494e53554646494349454e545f414d4f554e54a265627a7a7231582059136c3a757d470b5d859519554b9b8b19b4477b2f9864a7596f8adac8eff34964736f6c63430005100032",
  "source": "pragma solidity =0.5.16;\n\nimport './interfaces/V2/IUniswapV2Callee.sol';\nimport './UniswapV2Library.sol';\nimport './interfaces/V1/IUniswapV1Factory.sol';\nimport './interfaces/V1/IUniswapV1Exchange.sol';\nimport './interfaces/IUniswapV2Router01.sol';\nimport './interfaces/IERC20.sol';\nimport './interfaces/IWETH.sol';\n\ncontract ExampleFlashSwap is IUniswapV2Callee, UniswapV2Library(0x84e924C5E04438D2c1Df1A981f7E7104952e6de1) {\n    IUniswapV1Factory public factoryV1;\n    IWETH public WETH;\n\n    constructor(address _factoryV1) public {\n        factoryV1 = IUniswapV1Factory(_factoryV1);\n        // router address is identical across mainnet and testnets but differs between testing and deployed environments\n        WETH = IWETH(IUniswapV2Router01(0x84e924C5E04438D2c1Df1A981f7E7104952e6de1).WETH());\n    }\n\n    // needs to accept ETH from any V1 exchange and WETH. ideally this could be enforced, as in the router,\n    // but it's not possible because it requires a call to the v1 factory, which takes too much gas\n    function() external payable {}\n\n    // gets tokens/WETH via a V2 flash swap, swaps for the ETH/tokens on V1, repays V2, and keeps the rest!\n    function uniswapV2Call(address sender, uint amount0, uint amount1, bytes calldata data) external {\n        address[] memory path = new address[](2);\n        uint amountToken;\n        uint amountETH;\n        { // scope for token{0,1}, avoids stack too deep errors\n        address token0 = IUniswapV2Pair(msg.sender).token0();\n        address token1 = IUniswapV2Pair(msg.sender).token1();\n        assert(msg.sender == pairFor(token0, token1)); // ensure that msg.sender is actually a V2 pair\n        assert(amount0 == 0 || amount1 == 0); // this strategy is unidirectional\n        path[0] = amount0 == 0 ? token0 : token1;\n        path[1] = amount0 == 0 ? token1 : token0;\n        amountToken = token0 == address(WETH) ? amount1 : amount0;\n        amountETH = token0 == address(WETH) ? amount0 : amount1;\n        }\n\n        assert(path[0] == address(WETH) || path[1] == address(WETH)); // this strategy only works with a V2 WETH pair\n        IERC20 token = IERC20(path[0] == address(WETH) ? path[1] : path[0]);\n        IUniswapV1Exchange exchangeV1 = IUniswapV1Exchange(factoryV1.getExchange(address(token))); // get V1 exchange\n\n        if (amountToken > 0) {\n            (uint minETH) = abi.decode(data, (uint)); // slippage parameter for V1, passed in by caller\n            token.approve(address(exchangeV1), amountToken);\n            uint amountReceived = exchangeV1.tokenToEthSwapInput(amountToken, minETH, uint(-1));\n            uint amountRequired = getAmountsIn(amountToken, path)[0];\n            assert(amountReceived > amountRequired); // fail if we didn't get enough ETH back to repay our flash loan\n            WETH.deposit.value(amountRequired)();\n            assert(WETH.transfer(msg.sender, amountRequired)); // return WETH to V2 pair\n            (bool success,) = sender.call.value(amountReceived - amountRequired)(new bytes(0)); // keep the rest! (ETH)\n            assert(success);\n        } else {\n            (uint minTokens) = abi.decode(data, (uint)); // slippage parameter for V1, passed in by caller\n            WETH.withdraw(amountETH);\n            uint amountReceived = exchangeV1.ethToTokenSwapInput.value(amountETH)(minTokens, uint(-1));\n            uint amountRequired = getAmountsIn(amountETH, path)[0];\n            assert(amountReceived > amountRequired); // fail if we didn't get enough tokens back to repay our flash loan\n            assert(token.transfer(msg.sender, amountRequired)); // return tokens to V2 pair\n            assert(token.transfer(sender, amountReceived - amountRequired)); // keep the rest! (tokens)\n        }\n    }\n}\n",
  "sourcePath": "/home/safu/ethereum/maticUniswap/forgit/final/maticUniswap/contracts/ExampleFlashSwap.sol",
  "compiler": {
    "name": "solc",
    "version": "0.5.16+commit.9c3226ce.Emscripten.clang"
  },
  "schemaVersion": "3.0.23",
  "updatedAt": "2020-04-13T09:01:23.856Z",
  "devdoc": {
    "methods": {}
  },
  "userdoc": {
    "methods": {}
  }
}