{
  "contractName": "ExampleOracleSimple",
  "abi": [
    {
      "inputs": [
        {
          "internalType": "address",
          "name": "tokenA",
          "type": "address"
        },
        {
          "internalType": "address",
          "name": "tokenB",
          "type": "address"
        }
      ],
      "payable": false,
      "stateMutability": "nonpayable",
      "type": "constructor"
    },
    {
      "constant": true,
      "inputs": [],
      "name": "PERIOD",
      "outputs": [
        {
          "internalType": "uint256",
          "name": "",
          "type": "uint256"
        }
      ],
      "payable": false,
      "stateMutability": "view",
      "type": "function"
    },
    {
      "constant": true,
      "inputs": [],
      "name": "blockTimestampLast",
      "outputs": [
        {
          "internalType": "uint32",
          "name": "",
          "type": "uint32"
        }
      ],
      "payable": false,
      "stateMutability": "view",
      "type": "function"
    },
    {
      "constant": true,
      "inputs": [],
      "name": "factory",
      "outputs": [
        {
          "internalType": "contract IUniswapV2Factory",
          "name": "",
          "type": "address"
        }
      ],
      "payable": false,
      "stateMutability": "view",
      "type": "function"
    },
    {
      "constant": true,
      "inputs": [
        {
          "internalType": "uint256",
          "name": "amountOut",
          "type": "uint256"
        },
        {
          "internalType": "uint256",
          "name": "reserveIn",
          "type": "uint256"
        },
        {
          "internalType": "uint256",
          "name": "reserveOut",
          "type": "uint256"
        }
      ],
      "name": "getAmountIn",
      "outputs": [
        {
          "internalType": "uint256",
          "name": "amountIn",
          "type": "uint256"
        }
      ],
      "payable": false,
      "stateMutability": "pure",
      "type": "function"
    },
    {
      "constant": true,
      "inputs": [
        {
          "internalType": "uint256",
          "name": "amountIn",
          "type": "uint256"
        },
        {
          "internalType": "uint256",
          "name": "reserveIn",
          "type": "uint256"
        },
        {
          "internalType": "uint256",
          "name": "reserveOut",
          "type": "uint256"
        }
      ],
      "name": "getAmountOut",
      "outputs": [
        {
          "internalType": "uint256",
          "name": "amountOut",
          "type": "uint256"
        }
      ],
      "payable": false,
      "stateMutability": "pure",
      "type": "function"
    },
    {
      "constant": true,
      "inputs": [
        {
          "internalType": "uint256",
          "name": "amountOut",
          "type": "uint256"
        },
        {
          "internalType": "address[]",
          "name": "path",
          "type": "address[]"
        }
      ],
      "name": "getAmountsIn",
      "outputs": [
        {
          "internalType": "uint256[]",
          "name": "amounts",
          "type": "uint256[]"
        }
      ],
      "payable": false,
      "stateMutability": "view",
      "type": "function"
    },
    {
      "constant": true,
      "inputs": [
        {
          "internalType": "uint256",
          "name": "amountIn",
          "type": "uint256"
        },
        {
          "internalType": "address[]",
          "name": "path",
          "type": "address[]"
        }
      ],
      "name": "getAmountsOut",
      "outputs": [
        {
          "internalType": "uint256[]",
          "name": "amounts",
          "type": "uint256[]"
        }
      ],
      "payable": false,
      "stateMutability": "view",
      "type": "function"
    },
    {
      "constant": true,
      "inputs": [],
      "name": "pair",
      "outputs": [
        {
          "internalType": "contract IUniswapV2Pair",
          "name": "",
          "type": "address"
        }
      ],
      "payable": false,
      "stateMutability": "view",
      "type": "function"
    },
    {
      "constant": true,
      "inputs": [],
      "name": "price0Average",
      "outputs": [
        {
          "internalType": "uint224",
          "name": "",
          "type": "uint224"
        }
      ],
      "payable": false,
      "stateMutability": "view",
      "type": "function"
    },
    {
      "constant": true,
      "inputs": [],
      "name": "price0CumulativeLast",
      "outputs": [
        {
          "internalType": "uint256",
          "name": "",
          "type": "uint256"
        }
      ],
      "payable": false,
      "stateMutability": "view",
      "type": "function"
    },
    {
      "constant": true,
      "inputs": [],
      "name": "price1Average",
      "outputs": [
        {
          "internalType": "uint224",
          "name": "",
          "type": "uint224"
        }
      ],
      "payable": false,
      "stateMutability": "view",
      "type": "function"
    },
    {
      "constant": true,
      "inputs": [],
      "name": "price1CumulativeLast",
      "outputs": [
        {
          "internalType": "uint256",
          "name": "",
          "type": "uint256"
        }
      ],
      "payable": false,
      "stateMutability": "view",
      "type": "function"
    },
    {
      "constant": true,
      "inputs": [
        {
          "internalType": "uint256",
          "name": "amountA",
          "type": "uint256"
        },
        {
          "internalType": "uint256",
          "name": "reserveA",
          "type": "uint256"
        },
        {
          "internalType": "uint256",
          "name": "reserveB",
          "type": "uint256"
        }
      ],
      "name": "quote",
      "outputs": [
        {
          "internalType": "uint256",
          "name": "amountB",
          "type": "uint256"
        }
      ],
      "payable": false,
      "stateMutability": "pure",
      "type": "function"
    },
    {
      "constant": true,
      "inputs": [],
      "name": "token0",
      "outputs": [
        {
          "internalType": "address",
          "name": "",
          "type": "address"
        }
      ],
      "payable": false,
      "stateMutability": "view",
      "type": "function"
    },
    {
      "constant": true,
      "inputs": [],
      "name": "token1",
      "outputs": [
        {
          "internalType": "address",
          "name": "",
          "type": "address"
        }
      ],
      "payable": false,
      "stateMutability": "view",
      "type": "function"
    },
    {
      "constant": false,
      "inputs": [],
      "name": "update",
      "outputs": [],
      "payable": false,
      "stateMutability": "nonpayable",
      "type": "function"
    },
    {
      "constant": true,
      "inputs": [
        {
          "internalType": "address",
          "name": "token",
          "type": "address"
        },
        {
          "internalType": "uint256",
          "name": "amountIn",
          "type": "uint256"
        }
      ],
      "name": "consult",
      "outputs": [
        {
          "internalType": "uint256",
          "name": "amountOut",
          "type": "uint256"
        }
      ],
      "payable": false,
      "stateMutability": "view",
      "type": "function"
    }
  ],
  "bytecode": "0x60806040523480156200001157600080fd5b506040516200238338038062002383833981810160405260408110156200003757600080fd5b8101908080519060200190929190805190602001909291905050507384e924c5e04438d2c1df1a981f7e7104952e6de1806000806101000a81548173ffffffffffffffffffffffffffffffffffffffff021916908373ffffffffffffffffffffffffffffffffffffffff16021790555050620000ba82826200048160201b60201c565b60016000600260008491906101000a81548173ffffffffffffffffffffffffffffffffffffffff021916908373ffffffffffffffffffffffffffffffffffffffff1602179055508391906101000a81548173ffffffffffffffffffffffffffffffffffffffff021916908373ffffffffffffffffffffffffffffffffffffffff160217905550505062000198600160009054906101000a900473ffffffffffffffffffffffffffffffffffffffff16600260009054906101000a900473ffffffffffffffffffffffffffffffffffffffff16620005fd60201b60201c565b600360006101000a81548173ffffffffffffffffffffffffffffffffffffffff021916908373ffffffffffffffffffffffffffffffffffffffff160217905550600360009054906101000a900473ffffffffffffffffffffffffffffffffffffffff1673ffffffffffffffffffffffffffffffffffffffff16635909c0d56040518163ffffffff1660e01b815260040160206040518083038186803b1580156200024157600080fd5b505afa15801562000256573d6000803e3d6000fd5b505050506040513d60208110156200026d57600080fd5b8101908080519060200190929190505050600481905550600360009054906101000a900473ffffffffffffffffffffffffffffffffffffffff1673ffffffffffffffffffffffffffffffffffffffff16635a3d54936040518163ffffffff1660e01b815260040160206040518083038186803b158015620002ed57600080fd5b505afa15801562000302573d6000803e3d6000fd5b505050506040513d60208110156200031957600080fd5b8101908080519060200190929190505050600581905550600080600360009054906101000a900473ffffffffffffffffffffffffffffffffffffffff1673ffffffffffffffffffffffffffffffffffffffff16630902f1ac6040518163ffffffff1660e01b815260040160606040518083038186803b1580156200039c57600080fd5b505afa158015620003b1573d6000803e3d6000fd5b505050506040513d6060811015620003c857600080fd5b81019080805190602001909291908051906020019092919080519060200190929190505050600660008291906101000a81548163ffffffff021916908363ffffffff1602179055508193508294505050506000826dffffffffffffffffffffffffffff16141580156200044c57506000816dffffffffffffffffffffffffffff1614155b6200045357fe5b6000600660009054906101000a900463ffffffff1663ffffffff1614156200047757fe5b5050505062000732565b6000808273ffffffffffffffffffffffffffffffffffffffff168473ffffffffffffffffffffffffffffffffffffffff1614156200050b576040517f08c379a00000000000000000000000000000000000000000000000000000000081526004018080602001828103825260248152602001806200235f6024913960400191505060405180910390fd5b8273ffffffffffffffffffffffffffffffffffffffff168473ffffffffffffffffffffffffffffffffffffffff1610620005475782846200054a565b83835b8092508193505050600073ffffffffffffffffffffffffffffffffffffffff168273ffffffffffffffffffffffffffffffffffffffff161415620005f6576040517f08c379a000000000000000000000000000000000000000000000000000000000815260040180806020018281038252601d8152602001807f556e6973776170563248656c7065723a205a45524f5f4144445245535300000081525060200191505060405180910390fd5b9250929050565b60008060006200061485856200048160201b60201c565b915091506000809054906101000a900473ffffffffffffffffffffffffffffffffffffffff1673ffffffffffffffffffffffffffffffffffffffff1663e6a4390583836040518363ffffffff1660e01b8152600401808373ffffffffffffffffffffffffffffffffffffffff1673ffffffffffffffffffffffffffffffffffffffff1681526020018273ffffffffffffffffffffffffffffffffffffffff1673ffffffffffffffffffffffffffffffffffffffff1681526020019250505060206040518083038186803b158015620006eb57600080fd5b505afa15801562000700573d6000803e3d6000fd5b505050506040513d60208110156200071757600080fd5b81019080805190602001909291905050509250505092915050565b611c1d80620007426000396000f3fe608060405234801561001057600080fd5b506004361061010b5760003560e01c8063a2e62045116100a2578063b4d1d79511610071578063b4d1d79514610519578063c45a015514610537578063c5700a0214610581578063d06ca61f146105ab578063d21220a7146106c25761010b565b8063a2e6204514610415578063a6bb45391461041f578063a8aa1b3114610479578063ad615dec146104c35761010b565b80635909c0d5116100de5780635909c0d5146103295780635a3d5493146103475780635e6aaf2c1461036557806385f8c259146103bf5761010b565b8063054d50d4146101105780630dfe1681146101665780631f00ca74146101b05780633ddac953146102c7575b600080fd5b6101506004803603606081101561012657600080fd5b8101908080359060200190929190803590602001909291908035906020019092919050505061070c565b6040518082815260200191505060405180910390f35b61016e61083c565b604051808273ffffffffffffffffffffffffffffffffffffffff1673ffffffffffffffffffffffffffffffffffffffff16815260200191505060405180910390f35b610270600480360360408110156101c657600080fd5b8101908080359060200190929190803590602001906401000000008111156101ed57600080fd5b8201836020820111156101ff57600080fd5b8035906020019184602083028401116401000000008311171561022157600080fd5b919080806020026020016040519081016040528093929190818152602001838360200280828437600081840152601f19601f820116905080830192505050505050509192919290505050610862565b6040518080602001828103825283818151815260200191508051906020019060200280838360005b838110156102b3578082015181840152602081019050610298565b505050509050019250505060405180910390f35b610313600480360360408110156102dd57600080fd5b81019080803573ffffffffffffffffffffffffffffffffffffffff169060200190929190803590602001909291905050506109c9565b6040518082815260200191505060405180910390f35b610331610b4e565b6040518082815260200191505060405180910390f35b61034f610b54565b6040518082815260200191505060405180910390f35b61036d610b5a565b60405180827bffffffffffffffffffffffffffffffffffffffffffffffffffffffff167bffffffffffffffffffffffffffffffffffffffffffffffffffffffff16815260200191505060405180910390f35b6103ff600480360360608110156103d557600080fd5b81019080803590602001909291908035906020019092919080359060200190929190505050610b88565b6040518082815260200191505060405180910390f35b61041d610cc5565b005b610427611126565b60405180827bffffffffffffffffffffffffffffffffffffffffffffffffffffffff167bffffffffffffffffffffffffffffffffffffffffffffffffffffffff16815260200191505060405180910390f35b610481611154565b604051808273ffffffffffffffffffffffffffffffffffffffff1673ffffffffffffffffffffffffffffffffffffffff16815260200191505060405180910390f35b610503600480360360608110156104d957600080fd5b8101908080359060200190929190803590602001909291908035906020019092919050505061117a565b6040518082815260200191505060405180910390f35b61052161125e565b6040518082815260200191505060405180910390f35b61053f611265565b604051808273ffffffffffffffffffffffffffffffffffffffff1673ffffffffffffffffffffffffffffffffffffffff16815260200191505060405180910390f35b61058961128a565b604051808263ffffffff1663ffffffff16815260200191505060405180910390f35b61066b600480360360408110156105c157600080fd5b8101908080359060200190929190803590602001906401000000008111156105e857600080fd5b8201836020820111156105fa57600080fd5b8035906020019184602083028401116401000000008311171561061c57600080fd5b919080806020026020016040519081016040528093929190818152602001838360200280828437600081840152601f19601f8201169050808301925050505050505091929192905050506112a0565b6040518080602001828103825283818151815260200191508051906020019060200280838360005b838110156106ae578082015181840152602081019050610693565b505050509050019250505060405180910390f35b6106ca6113ff565b604051808273ffffffffffffffffffffffffffffffffffffffff1673ffffffffffffffffffffffffffffffffffffffff16815260200191505060405180910390f35b6000808411610766576040517f08c379a000000000000000000000000000000000000000000000000000000000815260040180806020018281038252602a815260200180611b9b602a913960400191505060405180910390fd5b6000831180156107765750600082115b6107cb576040517f08c379a0000000000000000000000000000000000000000000000000000000008152600401808060200182810382526027815260200180611b256027913960400191505060405180910390fd5b60006107e26103e58661142590919063ffffffff16565b905060006107f9848361142590919063ffffffff16565b90506000610824836108166103e88961142590919063ffffffff16565b6114ba90919063ffffffff16565b905080828161082f57fe5b0493505050509392505050565b600160009054906101000a900473ffffffffffffffffffffffffffffffffffffffff1681565b60606002825110156108dc576040517f08c379a000000000000000000000000000000000000000000000000000000000815260040180806020018281038252601d8152602001807f556e6973776170563248656c7065723a20494e56414c49445f5041544800000081525060200191505060405180910390fd5b815160405190808252806020026020018201604052801561090c5781602001602082028038833980820191505090505b509050828160018351038151811061092057fe5b6020026020010181815250506000600183510390505b60008111156109c25760008061097585600185038151811061095457fe5b602002602001015186858151811061096857fe5b602002602001015161153d565b9150915061099784848151811061098857fe5b60200260200101518383610b88565b8460018503815181106109a657fe5b6020026020010181815250505050808060019003915050610936565b5092915050565b6000600160009054906101000a900473ffffffffffffffffffffffffffffffffffffffff1673ffffffffffffffffffffffffffffffffffffffff168373ffffffffffffffffffffffffffffffffffffffff161415610a8b57610a84610a7f83600660049054906101000a90047bffffffffffffffffffffffffffffffffffffffffffffffffffffffff167bffffffffffffffffffffffffffffffffffffffffffffffffffffffff1661166490919063ffffffff16565b611735565b9050610b48565b600260009054906101000a900473ffffffffffffffffffffffffffffffffffffffff1673ffffffffffffffffffffffffffffffffffffffff168373ffffffffffffffffffffffffffffffffffffffff1614610ae257fe5b610b45610b4083600760009054906101000a90047bffffffffffffffffffffffffffffffffffffffffffffffffffffffff167bffffffffffffffffffffffffffffffffffffffffffffffffffffffff1661166490919063ffffffff16565b611735565b90505b92915050565b60045481565b60055481565b600760009054906101000a90047bffffffffffffffffffffffffffffffffffffffffffffffffffffffff1681565b6000808411610be2576040517f08c379a000000000000000000000000000000000000000000000000000000000815260040180806020018281038252602b815260200180611b4c602b913960400191505060405180910390fd5b600083118015610bf25750600082115b610c47576040517f08c379a0000000000000000000000000000000000000000000000000000000008152600401808060200182810382526027815260200180611b256027913960400191505060405180910390fd5b6000610c706103e8610c62878761142590919063ffffffff16565b61142590919063ffffffff16565b90506000610c9b6103e5610c8d888761177590919063ffffffff16565b61142590919063ffffffff16565b9050610cba6001828481610cab57fe5b046114ba90919063ffffffff16565b925050509392505050565b60006401000000004281610cd557fe5b0690506000600660009054906101000a900463ffffffff1682039050620151808163ffffffff161015610d0457fe5b6000600360009054906101000a900473ffffffffffffffffffffffffffffffffffffffff1673ffffffffffffffffffffffffffffffffffffffff16635909c0d56040518163ffffffff1660e01b815260040160206040518083038186803b158015610d6e57600080fd5b505afa158015610d82573d6000803e3d6000fd5b505050506040513d6020811015610d9857600080fd5b810190808051906020019092919050505090506000600360009054906101000a900473ffffffffffffffffffffffffffffffffffffffff1673ffffffffffffffffffffffffffffffffffffffff16635a3d54936040518163ffffffff1660e01b815260040160206040518083038186803b158015610e1557600080fd5b505afa158015610e29573d6000803e3d6000fd5b505050506040513d6020811015610e3f57600080fd5b810190808051906020019092919050505090506000806000600360009054906101000a900473ffffffffffffffffffffffffffffffffffffffff1673ffffffffffffffffffffffffffffffffffffffff16630902f1ac6040518163ffffffff1660e01b815260040160606040518083038186803b158015610ebf57600080fd5b505afa158015610ed3573d6000803e3d6000fd5b505050506040513d6060811015610ee957600080fd5b810190808051906020019092919080519060200190929190805190602001909291905050509250925092506000836dffffffffffffffffffffffffffff1614158015610f4657506000826dffffffffffffffffffffffffffff1614155b610f4c57fe5b8663ffffffff168163ffffffff1614611026578563ffffffff16610f9f84610f73856117f8565b7bffffffffffffffffffffffffffffffffffffffffffffffffffffffff1661182390919063ffffffff16565b7bffffffffffffffffffffffffffffffffffffffffffffffffffffffff1602850194508563ffffffff1661100283610fd6866117f8565b7bffffffffffffffffffffffffffffffffffffffffffffffffffffffff1661182390919063ffffffff16565b7bffffffffffffffffffffffffffffffffffffffffffffffffffffffff1602840193505b8563ffffffff1660045486038161103957fe5b04600660046101000a8154817bffffffffffffffffffffffffffffffffffffffffffffffffffffffff02191690837bffffffffffffffffffffffffffffffffffffffffffffffffffffffff1602179055508563ffffffff1660055485038161109d57fe5b04600760006101000a8154817bffffffffffffffffffffffffffffffffffffffffffffffffffffffff02191690837bffffffffffffffffffffffffffffffffffffffffffffffffffffffff160217905550846004819055508360058190555086600660006101000a81548163ffffffff021916908363ffffffff16021790555050505050505050565b600660049054906101000a90047bffffffffffffffffffffffffffffffffffffffffffffffffffffffff1681565b600360009054906101000a900473ffffffffffffffffffffffffffffffffffffffff1681565b60008084116111d4576040517f08c379a0000000000000000000000000000000000000000000000000000000008152600401808060200182810382526024815260200180611bc56024913960400191505060405180910390fd5b6000831180156111e45750600082115b611239576040517f08c379a0000000000000000000000000000000000000000000000000000000008152600401808060200182810382526027815260200180611b256027913960400191505060405180910390fd5b8261124d838661142590919063ffffffff16565b8161125457fe5b0490509392505050565b6201518081565b6000809054906101000a900473ffffffffffffffffffffffffffffffffffffffff1681565b600660009054906101000a900463ffffffff1681565b606060028251101561131a576040517f08c379a000000000000000000000000000000000000000000000000000000000815260040180806020018281038252601d8152602001807f556e6973776170563248656c7065723a20494e56414c49445f5041544800000081525060200191505060405180910390fd5b815160405190808252806020026020018201604052801561134a5781602001602082028038833980820191505090505b509050828160008151811061135b57fe5b60200260200101818152505060005b60018351038110156113f8576000806113ac85848151811061138857fe5b602002602001015186600186018151811061139f57fe5b602002602001015161153d565b915091506113ce8484815181106113bf57fe5b6020026020010151838361070c565b8460018501815181106113dd57fe5b6020026020010181815250505050808060010191505061136a565b5092915050565b600260009054906101000a900473ffffffffffffffffffffffffffffffffffffffff1681565b600080821480611442575082828385029250828161143f57fe5b04145b6114b4576040517f08c379a00000000000000000000000000000000000000000000000000000000081526004018080602001828103825260148152602001807f64732d6d6174682d6d756c2d6f766572666c6f7700000000000000000000000081525060200191505060405180910390fd5b92915050565b6000828284019150811015611537576040517f08c379a00000000000000000000000000000000000000000000000000000000081526004018080602001828103825260148152602001807f64732d6d6174682d6164642d6f766572666c6f7700000000000000000000000081525060200191505060405180910390fd5b92915050565b600080600061154c8585611883565b50905060008061155c87876119fa565b73ffffffffffffffffffffffffffffffffffffffff16630902f1ac6040518163ffffffff1660e01b815260040160606040518083038186803b1580156115a157600080fd5b505afa1580156115b5573d6000803e3d6000fd5b505050506040513d60608110156115cb57600080fd5b81019080805190602001909291908051906020019092919080519060200190929190505050506dffffffffffffffffffffffffffff1691506dffffffffffffffffffffffffffff1691508273ffffffffffffffffffffffffffffffffffffffff168773ffffffffffffffffffffffffffffffffffffffff161461164f578082611652565b81815b80955081965050505050509250929050565b6000808214806116bd5750827bffffffffffffffffffffffffffffffffffffffffffffffffffffffff168283857bffffffffffffffffffffffffffffffffffffffffffffffffffffffff1602925082816116ba57fe5b04145b61172f576040517f08c379a000000000000000000000000000000000000000000000000000000000815260040180806020018281038252600e8152602001807f75716d756c2d6f766572666c6f7700000000000000000000000000000000000081525060200191505060405180910390fd5b92915050565b60006e0100000000000000000000000000007bffffffffffffffffffffffffffffffffffffffffffffffffffffffff16828161176d57fe5b049050919050565b60008282840391508111156117f2576040517f08c379a00000000000000000000000000000000000000000000000000000000081526004018080602001828103825260158152602001807f64732d6d6174682d7375622d756e646572666c6f77000000000000000000000081525060200191505060405180910390fd5b92915050565b60006e010000000000000000000000000000826dffffffffffffffffffffffffffff16029050919050565b6000816dffffffffffffffffffffffffffff167bffffffffffffffffffffffffffffffffffffffffffffffffffffffff16837bffffffffffffffffffffffffffffffffffffffffffffffffffffffff168161187a57fe5b04905092915050565b6000808273ffffffffffffffffffffffffffffffffffffffff168473ffffffffffffffffffffffffffffffffffffffff16141561190b576040517f08c379a0000000000000000000000000000000000000000000000000000000008152600401808060200182810382526024815260200180611b776024913960400191505060405180910390fd5b8273ffffffffffffffffffffffffffffffffffffffff168473ffffffffffffffffffffffffffffffffffffffff1610611945578284611948565b83835b8092508193505050600073ffffffffffffffffffffffffffffffffffffffff168273ffffffffffffffffffffffffffffffffffffffff1614156119f3576040517f08c379a000000000000000000000000000000000000000000000000000000000815260040180806020018281038252601d8152602001807f556e6973776170563248656c7065723a205a45524f5f4144445245535300000081525060200191505060405180910390fd5b9250929050565b6000806000611a098585611883565b915091506000809054906101000a900473ffffffffffffffffffffffffffffffffffffffff1673ffffffffffffffffffffffffffffffffffffffff1663e6a4390583836040518363ffffffff1660e01b8152600401808373ffffffffffffffffffffffffffffffffffffffff1673ffffffffffffffffffffffffffffffffffffffff1681526020018273ffffffffffffffffffffffffffffffffffffffff1673ffffffffffffffffffffffffffffffffffffffff1681526020019250505060206040518083038186803b158015611adf57600080fd5b505afa158015611af3573d6000803e3d6000fd5b505050506040513d6020811015611b0957600080fd5b8101908080519060200190929190505050925050509291505056fe556e6973776170563248656c7065723a20494e53554646494349454e545f4c4951554944495459556e6973776170563248656c7065723a20494e53554646494349454e545f4f55545055545f414d4f554e54556e6973776170563248656c7065723a204944454e544943414c5f414444524553534553556e6973776170563248656c7065723a20494e53554646494349454e545f494e5055545f414d4f554e54556e6973776170563248656c7065723a20494e53554646494349454e545f414d4f554e54a265627a7a7231582008fb324acd83c157cb7a23390c3ef52dc19e1598907f6d7157da8c9fa822276764736f6c63430005100032556e6973776170563248656c7065723a204944454e544943414c5f414444524553534553",
  "source": "pragma solidity =0.5.16;\n\nimport './UniswapV2Library.sol';\nimport './libraries/UQ112x112.sol';\n\ncontract ExampleOracleSimple is UniswapV2Library(0x84e924C5E04438D2c1Df1A981f7E7104952e6de1) {\n    using UQ112x112 for uint224;\n\n    uint public constant PERIOD = 24 hours;\n    address public token0;\n    address public token1;\n    IUniswapV2Pair public pair;\n\n    uint    public price0CumulativeLast;\n    uint    public price1CumulativeLast;\n    uint32  public blockTimestampLast;\n    uint224 public price0Average;\n    uint224 public price1Average;\n\n    constructor(address tokenA, address tokenB) public {\n        (token0, token1) = sortTokens(tokenA, tokenB);\n        pair = IUniswapV2Pair(pairFor(token0, token1));\n        price0CumulativeLast = pair.price0CumulativeLast(); // fetch the current accumulated price value (1 / 0)\n        price1CumulativeLast = pair.price1CumulativeLast(); // fetch the current accumulated price value (0 / 1)\n        uint112 reserve0;\n        uint112 reserve1;\n        (reserve0, reserve1, blockTimestampLast) = pair.getReserves();\n        assert(reserve0 != 0 && reserve1 != 0); // ensure that there's liquidity in the pair\n        assert(blockTimestampLast != 0); // ensure there's a price history\n    }\n\n    function update() external {\n        uint32 blockTimestamp = uint32(block.timestamp % 2**32);\n        uint32 timeElapsed = blockTimestamp - blockTimestampLast; // overflow is desired\n        assert(timeElapsed >= PERIOD); // ensure that at least one full period has passed since the last update\n\n        uint price0Cumulative = pair.price0CumulativeLast();\n        uint price1Cumulative = pair.price1CumulativeLast();\n\n        // if time has elapsed since the last update on the pair, mock the accumulated price values\n        (uint112 reserve0, uint112 reserve1, uint32 blockTimestampLastFromPair) = pair.getReserves();\n        assert(reserve0 != 0 && reserve1 != 0); // ensure that there's still liquidity in the pair\n        if (blockTimestampLastFromPair != blockTimestamp) {\n            price0Cumulative += uint(UQ112x112.encode(reserve1).uqdiv(reserve0)) * timeElapsed; // counterfactual\n            price1Cumulative += uint(UQ112x112.encode(reserve0).uqdiv(reserve1)) * timeElapsed; // counterfactual\n        }\n\n        // - overflow is desired, / never overflows, casting never truncates\n        price0Average = uint224((price0Cumulative - price0CumulativeLast) / timeElapsed);\n        price1Average = uint224((price1Cumulative - price1CumulativeLast) / timeElapsed);\n\n        price0CumulativeLast = price0Cumulative;\n        price1CumulativeLast = price1Cumulative;\n        blockTimestampLast = blockTimestamp;\n    }\n\n    function consult(address token, uint amountIn) external view returns (uint amountOut) {\n        if (token == token0) {\n            amountOut = UQ112x112.decode(price0Average.uqmul(amountIn));\n        } else {\n            assert(token == token1);\n            amountOut = UQ112x112.decode(price1Average.uqmul(amountIn));\n        }\n    }\n}\n",
  "sourcePath": "/home/safu/ethereum/maticUniswap/forgit/final/maticUniswap/contracts/ExampleOracleSimple.sol",
  "compiler": {
    "name": "solc",
    "version": "0.5.16+commit.9c3226ce.Emscripten.clang"
  },
  "schemaVersion": "3.0.23",
  "updatedAt": "2020-04-13T09:01:23.937Z",
  "devdoc": {
    "methods": {}
  },
  "userdoc": {
    "methods": {}
  }
}