{
  "contractName": "UniswapV2Router01Gasless",
  "abi": [
    {
      "inputs": [
        {
          "internalType": "address",
          "name": "_WETH",
          "type": "address"
        },
        {
          "internalType": "address",
          "name": "_factoryAddress",
          "type": "address"
        },
        {
          "internalType": "uint256",
          "name": "_chainId",
          "type": "uint256"
        }
      ],
      "payable": false,
      "stateMutability": "nonpayable",
      "type": "constructor"
    },
    {
      "payable": true,
      "stateMutability": "payable",
      "type": "fallback"
    },
    {
      "constant": true,
      "inputs": [],
      "name": "DOMAIN_SEPARATOR",
      "outputs": [
        {
          "internalType": "bytes32",
          "name": "",
          "type": "bytes32"
        }
      ],
      "payable": false,
      "stateMutability": "view",
      "type": "function"
    },
    {
      "constant": true,
      "inputs": [],
      "name": "SWAP_TYPEHASH",
      "outputs": [
        {
          "internalType": "bytes32",
          "name": "",
          "type": "bytes32"
        }
      ],
      "payable": false,
      "stateMutability": "view",
      "type": "function"
    },
    {
      "constant": true,
      "inputs": [],
      "name": "WETH",
      "outputs": [
        {
          "internalType": "contract IWETH",
          "name": "",
          "type": "address"
        }
      ],
      "payable": false,
      "stateMutability": "view",
      "type": "function"
    },
    {
      "constant": true,
      "inputs": [],
      "name": "factory",
      "outputs": [
        {
          "internalType": "contract IUniswapV2Factory",
          "name": "",
          "type": "address"
        }
      ],
      "payable": false,
      "stateMutability": "view",
      "type": "function"
    },
    {
      "constant": true,
      "inputs": [
        {
          "internalType": "uint256",
          "name": "amountOut",
          "type": "uint256"
        },
        {
          "internalType": "uint256",
          "name": "reserveIn",
          "type": "uint256"
        },
        {
          "internalType": "uint256",
          "name": "reserveOut",
          "type": "uint256"
        }
      ],
      "name": "getAmountIn",
      "outputs": [
        {
          "internalType": "uint256",
          "name": "amountIn",
          "type": "uint256"
        }
      ],
      "payable": false,
      "stateMutability": "pure",
      "type": "function"
    },
    {
      "constant": true,
      "inputs": [
        {
          "internalType": "uint256",
          "name": "amountIn",
          "type": "uint256"
        },
        {
          "internalType": "uint256",
          "name": "reserveIn",
          "type": "uint256"
        },
        {
          "internalType": "uint256",
          "name": "reserveOut",
          "type": "uint256"
        }
      ],
      "name": "getAmountOut",
      "outputs": [
        {
          "internalType": "uint256",
          "name": "amountOut",
          "type": "uint256"
        }
      ],
      "payable": false,
      "stateMutability": "pure",
      "type": "function"
    },
    {
      "constant": true,
      "inputs": [
        {
          "internalType": "uint256",
          "name": "amountOut",
          "type": "uint256"
        },
        {
          "internalType": "address[]",
          "name": "path",
          "type": "address[]"
        }
      ],
      "name": "getAmountsIn",
      "outputs": [
        {
          "internalType": "uint256[]",
          "name": "amounts",
          "type": "uint256[]"
        }
      ],
      "payable": false,
      "stateMutability": "view",
      "type": "function"
    },
    {
      "constant": true,
      "inputs": [
        {
          "internalType": "uint256",
          "name": "amountIn",
          "type": "uint256"
        },
        {
          "internalType": "address[]",
          "name": "path",
          "type": "address[]"
        }
      ],
      "name": "getAmountsOut",
      "outputs": [
        {
          "internalType": "uint256[]",
          "name": "amounts",
          "type": "uint256[]"
        }
      ],
      "payable": false,
      "stateMutability": "view",
      "type": "function"
    },
    {
      "constant": true,
      "inputs": [
        {
          "internalType": "address",
          "name": "",
          "type": "address"
        }
      ],
      "name": "nonces",
      "outputs": [
        {
          "internalType": "uint256",
          "name": "",
          "type": "uint256"
        }
      ],
      "payable": false,
      "stateMutability": "view",
      "type": "function"
    },
    {
      "constant": true,
      "inputs": [
        {
          "internalType": "uint256",
          "name": "amountA",
          "type": "uint256"
        },
        {
          "internalType": "uint256",
          "name": "reserveA",
          "type": "uint256"
        },
        {
          "internalType": "uint256",
          "name": "reserveB",
          "type": "uint256"
        }
      ],
      "name": "quote",
      "outputs": [
        {
          "internalType": "uint256",
          "name": "amountB",
          "type": "uint256"
        }
      ],
      "payable": false,
      "stateMutability": "pure",
      "type": "function"
    },
    {
      "constant": false,
      "inputs": [
        {
          "internalType": "address",
          "name": "tokenA",
          "type": "address"
        },
        {
          "internalType": "address",
          "name": "tokenB",
          "type": "address"
        },
        {
          "internalType": "uint256",
          "name": "amountADesired",
          "type": "uint256"
        },
        {
          "internalType": "uint256",
          "name": "amountBDesired",
          "type": "uint256"
        },
        {
          "internalType": "uint256",
          "name": "amountAMin",
          "type": "uint256"
        },
        {
          "internalType": "uint256",
          "name": "amountBMin",
          "type": "uint256"
        },
        {
          "internalType": "address",
          "name": "to",
          "type": "address"
        },
        {
          "internalType": "uint256",
          "name": "deadline",
          "type": "uint256"
        }
      ],
      "name": "addLiquidity",
      "outputs": [
        {
          "internalType": "uint256",
          "name": "amountA",
          "type": "uint256"
        },
        {
          "internalType": "uint256",
          "name": "amountB",
          "type": "uint256"
        },
        {
          "internalType": "uint256",
          "name": "liquidity",
          "type": "uint256"
        }
      ],
      "payable": false,
      "stateMutability": "nonpayable",
      "type": "function"
    },
    {
      "constant": false,
      "inputs": [
        {
          "internalType": "address",
          "name": "token",
          "type": "address"
        },
        {
          "internalType": "uint256",
          "name": "amountTokenDesired",
          "type": "uint256"
        },
        {
          "internalType": "uint256",
          "name": "amountTokenMin",
          "type": "uint256"
        },
        {
          "internalType": "uint256",
          "name": "amountETHMin",
          "type": "uint256"
        },
        {
          "internalType": "address",
          "name": "to",
          "type": "address"
        },
        {
          "internalType": "uint256",
          "name": "deadline",
          "type": "uint256"
        }
      ],
      "name": "addLiquidityETH",
      "outputs": [
        {
          "internalType": "uint256",
          "name": "amountToken",
          "type": "uint256"
        },
        {
          "internalType": "uint256",
          "name": "amountETH",
          "type": "uint256"
        },
        {
          "internalType": "uint256",
          "name": "liquidity",
          "type": "uint256"
        }
      ],
      "payable": true,
      "stateMutability": "payable",
      "type": "function"
    },
    {
      "constant": false,
      "inputs": [
        {
          "internalType": "address",
          "name": "tokenA",
          "type": "address"
        },
        {
          "internalType": "address",
          "name": "tokenB",
          "type": "address"
        },
        {
          "internalType": "uint256",
          "name": "liquidity",
          "type": "uint256"
        },
        {
          "internalType": "uint256",
          "name": "amountAMin",
          "type": "uint256"
        },
        {
          "internalType": "uint256",
          "name": "amountBMin",
          "type": "uint256"
        },
        {
          "internalType": "address",
          "name": "to",
          "type": "address"
        },
        {
          "internalType": "uint256",
          "name": "deadline",
          "type": "uint256"
        }
      ],
      "name": "removeLiquidity",
      "outputs": [
        {
          "internalType": "uint256",
          "name": "amountA",
          "type": "uint256"
        },
        {
          "internalType": "uint256",
          "name": "amountB",
          "type": "uint256"
        }
      ],
      "payable": false,
      "stateMutability": "nonpayable",
      "type": "function"
    },
    {
      "constant": false,
      "inputs": [
        {
          "internalType": "address",
          "name": "token",
          "type": "address"
        },
        {
          "internalType": "uint256",
          "name": "liquidity",
          "type": "uint256"
        },
        {
          "internalType": "uint256",
          "name": "amountTokenMin",
          "type": "uint256"
        },
        {
          "internalType": "uint256",
          "name": "amountETHMin",
          "type": "uint256"
        },
        {
          "internalType": "address",
          "name": "to",
          "type": "address"
        },
        {
          "internalType": "uint256",
          "name": "deadline",
          "type": "uint256"
        }
      ],
      "name": "removeLiquidityETH",
      "outputs": [
        {
          "internalType": "uint256",
          "name": "amountToken",
          "type": "uint256"
        },
        {
          "internalType": "uint256",
          "name": "amountETH",
          "type": "uint256"
        }
      ],
      "payable": false,
      "stateMutability": "nonpayable",
      "type": "function"
    },
    {
      "constant": false,
      "inputs": [
        {
          "internalType": "address",
          "name": "tokenA",
          "type": "address"
        },
        {
          "internalType": "address",
          "name": "tokenB",
          "type": "address"
        },
        {
          "internalType": "uint256",
          "name": "liquidity",
          "type": "uint256"
        },
        {
          "internalType": "uint256",
          "name": "amountAMin",
          "type": "uint256"
        },
        {
          "internalType": "uint256",
          "name": "amountBMin",
          "type": "uint256"
        },
        {
          "internalType": "address",
          "name": "to",
          "type": "address"
        },
        {
          "internalType": "uint256",
          "name": "deadline",
          "type": "uint256"
        },
        {
          "internalType": "bool",
          "name": "approveMax",
          "type": "bool"
        },
        {
          "internalType": "uint8",
          "name": "v",
          "type": "uint8"
        },
        {
          "internalType": "bytes32",
          "name": "r",
          "type": "bytes32"
        },
        {
          "internalType": "bytes32",
          "name": "s",
          "type": "bytes32"
        }
      ],
      "name": "removeLiquidityWithPermit",
      "outputs": [
        {
          "internalType": "uint256",
          "name": "amountA",
          "type": "uint256"
        },
        {
          "internalType": "uint256",
          "name": "amountB",
          "type": "uint256"
        }
      ],
      "payable": false,
      "stateMutability": "nonpayable",
      "type": "function"
    },
    {
      "constant": false,
      "inputs": [
        {
          "internalType": "address",
          "name": "token",
          "type": "address"
        },
        {
          "internalType": "uint256",
          "name": "liquidity",
          "type": "uint256"
        },
        {
          "internalType": "uint256",
          "name": "amountTokenMin",
          "type": "uint256"
        },
        {
          "internalType": "uint256",
          "name": "amountETHMin",
          "type": "uint256"
        },
        {
          "internalType": "address",
          "name": "to",
          "type": "address"
        },
        {
          "internalType": "uint256",
          "name": "deadline",
          "type": "uint256"
        },
        {
          "internalType": "bool",
          "name": "approveMax",
          "type": "bool"
        },
        {
          "internalType": "uint8",
          "name": "v",
          "type": "uint8"
        },
        {
          "internalType": "bytes32",
          "name": "r",
          "type": "bytes32"
        },
        {
          "internalType": "bytes32",
          "name": "s",
          "type": "bytes32"
        }
      ],
      "name": "removeLiquidityETHWithPermit",
      "outputs": [
        {
          "internalType": "uint256",
          "name": "amountToken",
          "type": "uint256"
        },
        {
          "internalType": "uint256",
          "name": "amountETH",
          "type": "uint256"
        }
      ],
      "payable": false,
      "stateMutability": "nonpayable",
      "type": "function"
    },
    {
      "constant": false,
      "inputs": [
        {
          "internalType": "uint256",
          "name": "amountIn",
          "type": "uint256"
        },
        {
          "internalType": "uint256",
          "name": "amountOutMin",
          "type": "uint256"
        },
        {
          "internalType": "address[]",
          "name": "path",
          "type": "address[]"
        },
        {
          "internalType": "address",
          "name": "to",
          "type": "address"
        },
        {
          "internalType": "uint256",
          "name": "deadline",
          "type": "uint256"
        }
      ],
      "name": "swapExactTokensForTokens",
      "outputs": [
        {
          "internalType": "uint256[]",
          "name": "amounts",
          "type": "uint256[]"
        }
      ],
      "payable": false,
      "stateMutability": "nonpayable",
      "type": "function"
    },
    {
      "constant": false,
      "inputs": [
        {
          "internalType": "uint256",
          "name": "amountOut",
          "type": "uint256"
        },
        {
          "internalType": "uint256",
          "name": "amountInMax",
          "type": "uint256"
        },
        {
          "internalType": "address[]",
          "name": "path",
          "type": "address[]"
        },
        {
          "internalType": "address",
          "name": "to",
          "type": "address"
        },
        {
          "internalType": "uint256",
          "name": "deadline",
          "type": "uint256"
        }
      ],
      "name": "swapTokensForExactTokens",
      "outputs": [
        {
          "internalType": "uint256[]",
          "name": "amounts",
          "type": "uint256[]"
        }
      ],
      "payable": false,
      "stateMutability": "nonpayable",
      "type": "function"
    },
    {
      "constant": false,
      "inputs": [
        {
          "internalType": "uint256",
          "name": "amountOutMin",
          "type": "uint256"
        },
        {
          "internalType": "address[]",
          "name": "path",
          "type": "address[]"
        },
        {
          "internalType": "address",
          "name": "to",
          "type": "address"
        },
        {
          "internalType": "uint256",
          "name": "deadline",
          "type": "uint256"
        }
      ],
      "name": "swapExactETHForTokens",
      "outputs": [
        {
          "internalType": "uint256[]",
          "name": "amounts",
          "type": "uint256[]"
        }
      ],
      "payable": true,
      "stateMutability": "payable",
      "type": "function"
    },
    {
      "constant": false,
      "inputs": [
        {
          "internalType": "uint256",
          "name": "amountOut",
          "type": "uint256"
        },
        {
          "internalType": "uint256",
          "name": "amountInMax",
          "type": "uint256"
        },
        {
          "internalType": "address[]",
          "name": "path",
          "type": "address[]"
        },
        {
          "internalType": "address",
          "name": "to",
          "type": "address"
        },
        {
          "internalType": "uint256",
          "name": "deadline",
          "type": "uint256"
        }
      ],
      "name": "swapTokensForExactETH",
      "outputs": [
        {
          "internalType": "uint256[]",
          "name": "amounts",
          "type": "uint256[]"
        }
      ],
      "payable": false,
      "stateMutability": "nonpayable",
      "type": "function"
    },
    {
      "constant": false,
      "inputs": [
        {
          "internalType": "uint256",
          "name": "amountIn",
          "type": "uint256"
        },
        {
          "internalType": "uint256",
          "name": "amountOutMin",
          "type": "uint256"
        },
        {
          "internalType": "address[]",
          "name": "path",
          "type": "address[]"
        },
        {
          "internalType": "address",
          "name": "to",
          "type": "address"
        },
        {
          "internalType": "uint256",
          "name": "deadline",
          "type": "uint256"
        }
      ],
      "name": "swapExactTokensForETH",
      "outputs": [
        {
          "internalType": "uint256[]",
          "name": "amounts",
          "type": "uint256[]"
        }
      ],
      "payable": false,
      "stateMutability": "nonpayable",
      "type": "function"
    },
    {
      "constant": false,
      "inputs": [
        {
          "internalType": "uint256",
          "name": "amountOut",
          "type": "uint256"
        },
        {
          "internalType": "address[]",
          "name": "path",
          "type": "address[]"
        },
        {
          "internalType": "address",
          "name": "to",
          "type": "address"
        },
        {
          "internalType": "uint256",
          "name": "deadline",
          "type": "uint256"
        }
      ],
      "name": "swapETHForExactTokens",
      "outputs": [
        {
          "internalType": "uint256[]",
          "name": "amounts",
          "type": "uint256[]"
        }
      ],
      "payable": true,
      "stateMutability": "payable",
      "type": "function"
    },
    {
      "constant": false,
      "inputs": [
        {
          "internalType": "address",
          "name": "from",
          "type": "address"
        },
        {
          "internalType": "uint256",
          "name": "amount",
          "type": "uint256"
        },
        {
          "internalType": "address",
          "name": "inputToken",
          "type": "address"
        },
        {
          "internalType": "address",
          "name": "outputToken",
          "type": "address"
        },
        {
          "internalType": "address",
          "name": "to",
          "type": "address"
        },
        {
          "internalType": "uint256",
          "name": "deadline",
          "type": "uint256"
        },
        {
          "internalType": "uint8",
          "name": "v",
          "type": "uint8"
        },
        {
          "internalType": "bytes32",
          "name": "r",
          "type": "bytes32"
        },
        {
          "internalType": "bytes32",
          "name": "s",
          "type": "bytes32"
        }
      ],
      "name": "swap",
      "outputs": [
        {
          "internalType": "uint256[]",
          "name": "amounts",
          "type": "uint256[]"
        }
      ],
      "payable": false,
      "stateMutability": "nonpayable",
      "type": "function"
    }
  ],
  "bytecode": "0x60806040523480156200001157600080fd5b506040516200562038038062005620833981810160405260608110156200003757600080fd5b8101908080519060200190929190805190602001909291908051906020019092919050505081806000806101000a81548173ffffffffffffffffffffffffffffffffffffffff021916908373ffffffffffffffffffffffffffffffffffffffff1602179055505082600160006101000a81548173ffffffffffffffffffffffffffffffffffffffff021916908373ffffffffffffffffffffffffffffffffffffffff1602179055506040518080620055ce60529139605201905060405180910390206040518060400160405280601181526020017f556e69737761705632526f757465723031000000000000000000000000000000815250805190602001206040518060400160405280600181526020017f3100000000000000000000000000000000000000000000000000000000000000815250805190602001208330604051602001808681526020018581526020018481526020018381526020018273ffffffffffffffffffffffffffffffffffffffff1673ffffffffffffffffffffffffffffffffffffffff16815260200195505050505050604051602081830303815290604052805190602001206002819055505050506153d280620001fc6000396000f3fe6080604052600436106101405760003560e01c806385f8c259116100b6578063c9e96b071161006f578063c9e96b0714610d3f578063d06ca61f14610e7b578063ded9382a14610f9f578063e8e3370014611081578063f305d71914611167578063fb3bdb411461121557610140565b806385f8c259146109de5780638803dbee14610a41578063ad5c464814610b5a578063ad615dec14610bb1578063baa2abde14610c14578063c45a015514610ce857610140565b80633644e515116101085780633644e515146105ef57806338ed17391461061a5780634a25d94a146107335780634bc30ea71461084c5780637ecebe00146108775780637ff36ab5146108dc57610140565b806302751cec14610199578063054d50d41461024d57806318cbafe5146102b05780631f00ca74146103c95780632195995c146104ed575b600160009054906101000a900473ffffffffffffffffffffffffffffffffffffffff1673ffffffffffffffffffffffffffffffffffffffff163373ffffffffffffffffffffffffffffffffffffffff161461019757fe5b005b3480156101a557600080fd5b50610230600480360360c08110156101bc57600080fd5b81019080803573ffffffffffffffffffffffffffffffffffffffff169060200190929190803590602001909291908035906020019092919080359060200190929190803573ffffffffffffffffffffffffffffffffffffffff16906020019092919080359060200190929190505050611317565b604051808381526020018281526020019250505060405180910390f35b34801561025957600080fd5b5061029a6004803603606081101561027057600080fd5b81019080803590602001909291908035906020019092919080359060200190929190505050611478565b6040518082815260200191505060405180910390f35b3480156102bc57600080fd5b50610372600480360360a08110156102d357600080fd5b8101908080359060200190929190803590602001909291908035906020019064010000000081111561030457600080fd5b82018360208201111561031657600080fd5b8035906020019184602083028401116401000000008311171561033857600080fd5b9091929391929390803573ffffffffffffffffffffffffffffffffffffffff169060200190929190803590602001909291905050506115a8565b6040518080602001828103825283818151815260200191508051906020019060200280838360005b838110156103b557808201518184015260208101905061039a565b505050509050019250505060405180910390f35b3480156103d557600080fd5b50610496600480360360408110156103ec57600080fd5b81019080803590602001909291908035906020019064010000000081111561041357600080fd5b82018360208201111561042557600080fd5b8035906020019184602083028401116401000000008311171561044757600080fd5b919080806020026020016040519081016040528093929190818152602001838360200280828437600081840152601f19601f82011690508083019250505050505050919291929050505061198f565b6040518080602001828103825283818151815260200191508051906020019060200280838360005b838110156104d95780820151818401526020810190506104be565b505050509050019250505060405180910390f35b3480156104f957600080fd5b506105d2600480360361016081101561051157600080fd5b81019080803573ffffffffffffffffffffffffffffffffffffffff169060200190929190803573ffffffffffffffffffffffffffffffffffffffff169060200190929190803590602001909291908035906020019092919080359060200190929190803573ffffffffffffffffffffffffffffffffffffffff16906020019092919080359060200190929190803515159060200190929190803560ff1690602001909291908035906020019092919080359060200190929190505050611af6565b604051808381526020018281526020019250505060405180910390f35b3480156105fb57600080fd5b50610604611c5a565b6040518082815260200191505060405180910390f35b34801561062657600080fd5b506106dc600480360360a081101561063d57600080fd5b8101908080359060200190929190803590602001909291908035906020019064010000000081111561066e57600080fd5b82018360208201111561068057600080fd5b803590602001918460208302840111640100000000831117156106a257600080fd5b9091929391929390803573ffffffffffffffffffffffffffffffffffffffff16906020019092919080359060200190929190505050611c60565b6040518080602001828103825283818151815260200191508051906020019060200280838360005b8381101561071f578082015181840152602081019050610704565b505050509050019250505060405180910390f35b34801561073f57600080fd5b506107f5600480360360a081101561075657600080fd5b8101908080359060200190929190803590602001909291908035906020019064010000000081111561078757600080fd5b82018360208201111561079957600080fd5b803590602001918460208302840111640100000000831117156107bb57600080fd5b9091929391929390803573ffffffffffffffffffffffffffffffffffffffff16906020019092919080359060200190929190505050611e91565b6040518080602001828103825283818151815260200191508051906020019060200280838360005b8381101561083857808201518184015260208101905061081d565b505050509050019250505060405180910390f35b34801561085857600080fd5b50610861612275565b6040518082815260200191505060405180910390f35b34801561088357600080fd5b506108c66004803603602081101561089a57600080fd5b81019080803573ffffffffffffffffffffffffffffffffffffffff169060200190929190505050612291565b6040518082815260200191505060405180910390f35b610987600480360360808110156108f257600080fd5b81019080803590602001909291908035906020019064010000000081111561091957600080fd5b82018360208201111561092b57600080fd5b8035906020019184602083028401116401000000008311171561094d57600080fd5b9091929391929390803573ffffffffffffffffffffffffffffffffffffffff169060200190929190803590602001909291905050506122a9565b6040518080602001828103825283818151815260200191508051906020019060200280838360005b838110156109ca5780820151818401526020810190506109af565b505050509050019250505060405180910390f35b3480156109ea57600080fd5b50610a2b60048036036060811015610a0157600080fd5b81019080803590602001909291908035906020019092919080359060200190929190505050612711565b6040518082815260200191505060405180910390f35b348015610a4d57600080fd5b50610b03600480360360a0811015610a6457600080fd5b81019080803590602001909291908035906020019092919080359060200190640100000000811115610a9557600080fd5b820183602082011115610aa757600080fd5b80359060200191846020830284011164010000000083111715610ac957600080fd5b9091929391929390803573ffffffffffffffffffffffffffffffffffffffff1690602001909291908035906020019092919050505061284e565b6040518080602001828103825283818151815260200191508051906020019060200280838360005b83811015610b46578082015181840152602081019050610b2b565b505050509050019250505060405180910390f35b348015610b6657600080fd5b50610b6f612a7c565b604051808273ffffffffffffffffffffffffffffffffffffffff1673ffffffffffffffffffffffffffffffffffffffff16815260200191505060405180910390f35b348015610bbd57600080fd5b50610bfe60048036036060811015610bd457600080fd5b81019080803590602001909291908035906020019092919080359060200190929190505050612aa2565b6040518082815260200191505060405180910390f35b348015610c2057600080fd5b50610ccb600480360360e0811015610c3757600080fd5b81019080803573ffffffffffffffffffffffffffffffffffffffff169060200190929190803573ffffffffffffffffffffffffffffffffffffffff169060200190929190803590602001909291908035906020019092919080359060200190929190803573ffffffffffffffffffffffffffffffffffffffff16906020019092919080359060200190929190505050612b86565b604051808381526020018281526020019250505060405180910390f35b348015610cf457600080fd5b50610cfd612ee6565b604051808273ffffffffffffffffffffffffffffffffffffffff1673ffffffffffffffffffffffffffffffffffffffff16815260200191505060405180910390f35b348015610d4b57600080fd5b50610e246004803603610120811015610d6357600080fd5b81019080803573ffffffffffffffffffffffffffffffffffffffff16906020019092919080359060200190929190803573ffffffffffffffffffffffffffffffffffffffff169060200190929190803573ffffffffffffffffffffffffffffffffffffffff169060200190929190803573ffffffffffffffffffffffffffffffffffffffff16906020019092919080359060200190929190803560ff1690602001909291908035906020019092919080359060200190929190505050612f0b565b6040518080602001828103825283818151815260200191508051906020019060200280838360005b83811015610e67578082015181840152602081019050610e4c565b505050509050019250505060405180910390f35b348015610e8757600080fd5b50610f4860048036036040811015610e9e57600080fd5b810190808035906020019092919080359060200190640100000000811115610ec557600080fd5b820183602082011115610ed757600080fd5b80359060200191846020830284011164010000000083111715610ef957600080fd5b919080806020026020016040519081016040528093929190818152602001838360200280828437600081840152601f19601f8201169050808301925050505050505091929192905050506133ef565b6040518080602001828103825283818151815260200191508051906020019060200280838360005b83811015610f8b578082015181840152602081019050610f70565b505050509050019250505060405180910390f35b348015610fab57600080fd5b506110646004803603610140811015610fc357600080fd5b81019080803573ffffffffffffffffffffffffffffffffffffffff169060200190929190803590602001909291908035906020019092919080359060200190929190803573ffffffffffffffffffffffffffffffffffffffff16906020019092919080359060200190929190803515159060200190929190803560ff169060200190929190803590602001909291908035906020019092919050505061354e565b604051808381526020018281526020019250505060405180910390f35b34801561108d57600080fd5b5061114360048036036101008110156110a557600080fd5b81019080803573ffffffffffffffffffffffffffffffffffffffff169060200190929190803573ffffffffffffffffffffffffffffffffffffffff16906020019092919080359060200190929190803590602001909291908035906020019092919080359060200190929190803573ffffffffffffffffffffffffffffffffffffffff169060200190929190803590602001909291905050506136d2565b60405180848152602001838152602001828152602001935050505060405180910390f35b6111f1600480360360c081101561117d57600080fd5b81019080803573ffffffffffffffffffffffffffffffffffffffff169060200190929190803590602001909291908035906020019092919080359060200190929190803573ffffffffffffffffffffffffffffffffffffffff16906020019092919080359060200190929190505050613856565b60405180848152602001838152602001828152602001935050505060405180910390f35b6112c06004803603608081101561122b57600080fd5b81019080803590602001909291908035906020019064010000000081111561125257600080fd5b82018360208201111561126457600080fd5b8035906020019184602083028401116401000000008311171561128657600080fd5b9091929391929390803573ffffffffffffffffffffffffffffffffffffffff16906020019092919080359060200190929190505050613b92565b6040518080602001828103825283818151815260200191508051906020019060200280838360005b838110156113035780820151818401526020810190506112e8565b505050509050019250505060405180910390f35b6000808242811015611391576040517f08c379a00000000000000000000000000000000000000000000000000000000081526004018080602001828103825260188152602001807f556e69737761705632526f757465723a2045585049524544000000000000000081525060200191505060405180910390fd5b6113c289600160009054906101000a900473ffffffffffffffffffffffffffffffffffffffff168a8a8a308a612b86565b80935081945050506113d5898685614034565b600160009054906101000a900473ffffffffffffffffffffffffffffffffffffffff1673ffffffffffffffffffffffffffffffffffffffff16632e1a7d4d836040518263ffffffff1660e01b815260040180828152602001915050600060405180830381600087803b15801561144a57600080fd5b505af115801561145e573d6000803e3d6000fd5b5050505061146c8583614281565b50965096945050505050565b60008084116114d2576040517f08c379a000000000000000000000000000000000000000000000000000000000815260040180806020018281038252602a81526020018061528f602a913960400191505060405180910390fd5b6000831180156114e25750600082115b611537576040517f08c379a000000000000000000000000000000000000000000000000000000000815260040180806020018281038252602781526020018061515c6027913960400191505060405180910390fd5b600061154e6103e5866143c990919063ffffffff16565b9050600061156584836143c990919063ffffffff16565b90506000611590836115826103e8896143c990919063ffffffff16565b61445e90919063ffffffff16565b905080828161159b57fe5b0493505050509392505050565b60608142811015611621576040517f08c379a00000000000000000000000000000000000000000000000000000000081526004018080602001828103825260188152602001807f556e69737761705632526f757465723a2045585049524544000000000000000081525060200191505060405180910390fd5b600160009054906101000a900473ffffffffffffffffffffffffffffffffffffffff1673ffffffffffffffffffffffffffffffffffffffff1686866001898990500381811061166c57fe5b9050602002013573ffffffffffffffffffffffffffffffffffffffff1673ffffffffffffffffffffffffffffffffffffffff1614611712576040517f08c379a000000000000000000000000000000000000000000000000000000000815260040180806020018281038252601d8152602001807f556e69737761705632526f757465723a20494e56414c49445f5041544800000081525060200191505060405180910390fd5b61175d88878780806020026020016040519081016040528093929190818152602001838360200280828437600081840152601f19601f820116905080830192505050505050506133ef565b9150868260018451038151811061177057fe5b602002602001015110156117cf576040517f08c379a000000000000000000000000000000000000000000000000000000000815260040180806020018281038252602b815260200180615373602b913960400191505060405180910390fd5b611873868660008181106117df57fe5b9050602002013573ffffffffffffffffffffffffffffffffffffffff16336118598989600081811061180d57fe5b9050602002013573ffffffffffffffffffffffffffffffffffffffff168a8a600181811061183757fe5b9050602002013573ffffffffffffffffffffffffffffffffffffffff166144e1565b8560008151811061186657fe5b602002602001015161460b565b6118bf82878780806020026020016040519081016040528093929190818152602001838360200280828437600081840152601f19601f8201169050808301925050505050505030614853565b600160009054906101000a900473ffffffffffffffffffffffffffffffffffffffff1673ffffffffffffffffffffffffffffffffffffffff16632e1a7d4d8360018551038151811061190d57fe5b60200260200101516040518263ffffffff1660e01b815260040180828152602001915050600060405180830381600087803b15801561194b57600080fd5b505af115801561195f573d6000803e3d6000fd5b50505050611984848360018551038151811061197757fe5b6020026020010151614281565b509695505050505050565b6060600282511015611a09576040517f08c379a000000000000000000000000000000000000000000000000000000000815260040180806020018281038252601d8152602001807f556e6973776170563248656c7065723a20494e56414c49445f5041544800000081525060200191505060405180910390fd5b8151604051908082528060200260200182016040528015611a395781602001602082028038833980820191505090505b5090508281600183510381518110611a4d57fe5b6020026020010181815250506000600183510390505b6000811115611aef57600080611aa2856001850381518110611a8157fe5b6020026020010151868581518110611a9557fe5b6020026020010151614aa5565b91509150611ac4848481518110611ab557fe5b60200260200101518383612711565b846001850381518110611ad357fe5b6020026020010181815250505050808060019003915050611a63565b5092915050565b6000806000611b058e8e6144e1565b9050600087611b14578c611b36565b7fffffffffffffffffffffffffffffffffffffffffffffffffffffffffffffffff5b90508173ffffffffffffffffffffffffffffffffffffffff1663d505accf3330848d8c8c8c6040518863ffffffff1660e01b8152600401808873ffffffffffffffffffffffffffffffffffffffff1673ffffffffffffffffffffffffffffffffffffffff1681526020018773ffffffffffffffffffffffffffffffffffffffff1673ffffffffffffffffffffffffffffffffffffffff1681526020018681526020018581526020018460ff1660ff168152602001838152602001828152602001975050505050505050600060405180830381600087803b158015611c1957600080fd5b505af1158015611c2d573d6000803e3d6000fd5b50505050611c408f8f8f8f8f8f8f612b86565b809450819550505050509b509b9950505050505050505050565b60025481565b60608142811015611cd9576040517f08c379a00000000000000000000000000000000000000000000000000000000081526004018080602001828103825260188152602001807f556e69737761705632526f757465723a2045585049524544000000000000000081525060200191505060405180910390fd5b611d2488878780806020026020016040519081016040528093929190818152602001838360200280828437600081840152601f19601f820116905080830192505050505050506133ef565b91508682600184510381518110611d3757fe5b60200260200101511015611d96576040517f08c379a000000000000000000000000000000000000000000000000000000000815260040180806020018281038252602b815260200180615373602b913960400191505060405180910390fd5b611e3a86866000818110611da657fe5b9050602002013573ffffffffffffffffffffffffffffffffffffffff1633611e2089896000818110611dd457fe5b9050602002013573ffffffffffffffffffffffffffffffffffffffff168a8a6001818110611dfe57fe5b9050602002013573ffffffffffffffffffffffffffffffffffffffff166144e1565b85600081518110611e2d57fe5b602002602001015161460b565b611e8682878780806020026020016040519081016040528093929190818152602001838360200280828437600081840152601f19601f8201169050808301925050505050505086614853565b509695505050505050565b60608142811015611f0a576040517f08c379a00000000000000000000000000000000000000000000000000000000081526004018080602001828103825260188152602001807f556e69737761705632526f757465723a2045585049524544000000000000000081525060200191505060405180910390fd5b600160009054906101000a900473ffffffffffffffffffffffffffffffffffffffff1673ffffffffffffffffffffffffffffffffffffffff16868660018989905003818110611f5557fe5b9050602002013573ffffffffffffffffffffffffffffffffffffffff1673ffffffffffffffffffffffffffffffffffffffff1614611ffb576040517f08c379a000000000000000000000000000000000000000000000000000000000815260040180806020018281038252601d8152602001807f556e69737761705632526f757465723a20494e56414c49445f5041544800000081525060200191505060405180910390fd5b61204688878780806020026020016040519081016040528093929190818152602001838360200280828437600081840152601f19601f8201169050808301925050505050505061198f565b9150868260008151811061205657fe5b602002602001015111156120b5576040517f08c379a00000000000000000000000000000000000000000000000000000000081526004018080602001828103825260278152602001806153026027913960400191505060405180910390fd5b612159868660008181106120c557fe5b9050602002013573ffffffffffffffffffffffffffffffffffffffff163361213f898960008181106120f357fe5b9050602002013573ffffffffffffffffffffffffffffffffffffffff168a8a600181811061211d57fe5b9050602002013573ffffffffffffffffffffffffffffffffffffffff166144e1565b8560008151811061214c57fe5b602002602001015161460b565b6121a582878780806020026020016040519081016040528093929190818152602001838360200280828437600081840152601f19601f8201169050808301925050505050505030614853565b600160009054906101000a900473ffffffffffffffffffffffffffffffffffffffff1673ffffffffffffffffffffffffffffffffffffffff16632e1a7d4d836001855103815181106121f357fe5b60200260200101516040518263ffffffff1660e01b815260040180828152602001915050600060405180830381600087803b15801561223157600080fd5b505af1158015612245573d6000803e3d6000fd5b5050505061226a848360018551038151811061225d57fe5b6020026020010151614281565b509695505050505050565b60405180806151ae607291396072019050604051809103902081565b60036020528060005260406000206000915090505481565b60608142811015612322576040517f08c379a00000000000000000000000000000000000000000000000000000000081526004018080602001828103825260188152602001807f556e69737761705632526f757465723a2045585049524544000000000000000081525060200191505060405180910390fd5b600160009054906101000a900473ffffffffffffffffffffffffffffffffffffffff1673ffffffffffffffffffffffffffffffffffffffff168686600081811061236857fe5b9050602002013573ffffffffffffffffffffffffffffffffffffffff1673ffffffffffffffffffffffffffffffffffffffff161461240e576040517f08c379a000000000000000000000000000000000000000000000000000000000815260040180806020018281038252601d8152602001807f556e69737761705632526f757465723a20494e56414c49445f5041544800000081525060200191505060405180910390fd5b61245934878780806020026020016040519081016040528093929190818152602001838360200280828437600081840152601f19601f820116905080830192505050505050506133ef565b9150868260018451038151811061246c57fe5b602002602001015110156124cb576040517f08c379a000000000000000000000000000000000000000000000000000000000815260040180806020018281038252602b815260200180615373602b913960400191505060405180910390fd5b600160009054906101000a900473ffffffffffffffffffffffffffffffffffffffff1673ffffffffffffffffffffffffffffffffffffffff1663d0e30db08360008151811061251657fe5b60200260200101516040518263ffffffff1660e01b81526004016000604051808303818588803b15801561254957600080fd5b505af115801561255d573d6000803e3d6000fd5b5050505050600160009054906101000a900473ffffffffffffffffffffffffffffffffffffffff1673ffffffffffffffffffffffffffffffffffffffff1663a9059cbb6125fc888860008181106125b057fe5b9050602002013573ffffffffffffffffffffffffffffffffffffffff16898960018181106125da57fe5b9050602002013573ffffffffffffffffffffffffffffffffffffffff166144e1565b8460008151811061260957fe5b60200260200101516040518363ffffffff1660e01b8152600401808373ffffffffffffffffffffffffffffffffffffffff1673ffffffffffffffffffffffffffffffffffffffff16815260200182815260200192505050602060405180830381600087803b15801561267a57600080fd5b505af115801561268e573d6000803e3d6000fd5b505050506040513d60208110156126a457600080fd5b81019080805190602001909291905050506126bb57fe5b61270782878780806020026020016040519081016040528093929190818152602001838360200280828437600081840152601f19601f8201169050808301925050505050505086614853565b5095945050505050565b600080841161276b576040517f08c379a000000000000000000000000000000000000000000000000000000000815260040180806020018281038252602b815260200180615183602b913960400191505060405180910390fd5b60008311801561277b5750600082115b6127d0576040517f08c379a000000000000000000000000000000000000000000000000000000000815260040180806020018281038252602781526020018061515c6027913960400191505060405180910390fd5b60006127f96103e86127eb87876143c990919063ffffffff16565b6143c990919063ffffffff16565b905060006128246103e56128168887614bcc90919063ffffffff16565b6143c990919063ffffffff16565b9050612843600182848161283457fe5b0461445e90919063ffffffff16565b925050509392505050565b606081428110156128c7576040517f08c379a00000000000000000000000000000000000000000000000000000000081526004018080602001828103825260188152602001807f556e69737761705632526f757465723a2045585049524544000000000000000081525060200191505060405180910390fd5b61291288878780806020026020016040519081016040528093929190818152602001838360200280828437600081840152601f19601f8201169050808301925050505050505061198f565b9150868260008151811061292257fe5b60200260200101511115612981576040517f08c379a00000000000000000000000000000000000000000000000000000000081526004018080602001828103825260278152602001806153026027913960400191505060405180910390fd5b612a258686600081811061299157fe5b9050602002013573ffffffffffffffffffffffffffffffffffffffff1633612a0b898960008181106129bf57fe5b9050602002013573ffffffffffffffffffffffffffffffffffffffff168a8a60018181106129e957fe5b9050602002013573ffffffffffffffffffffffffffffffffffffffff166144e1565b85600081518110612a1857fe5b602002602001015161460b565b612a7182878780806020026020016040519081016040528093929190818152602001838360200280828437600081840152601f19601f8201169050808301925050505050505086614853565b509695505050505050565b600160009054906101000a900473ffffffffffffffffffffffffffffffffffffffff1681565b6000808411612afc576040517f08c379a00000000000000000000000000000000000000000000000000000000081526004018080602001828103825260248152602001806152b96024913960400191505060405180910390fd5b600083118015612b0c5750600082115b612b61576040517f08c379a000000000000000000000000000000000000000000000000000000000815260040180806020018281038252602781526020018061515c6027913960400191505060405180910390fd5b82612b7583866143c990919063ffffffff16565b81612b7c57fe5b0490509392505050565b6000808242811015612c00576040517f08c379a00000000000000000000000000000000000000000000000000000000081526004018080602001828103825260188152602001807f556e69737761705632526f757465723a2045585049524544000000000000000081525060200191505060405180910390fd5b6000612c0c8b8b6144e1565b90508073ffffffffffffffffffffffffffffffffffffffff166323b872dd33838c6040518463ffffffff1660e01b8152600401808473ffffffffffffffffffffffffffffffffffffffff1673ffffffffffffffffffffffffffffffffffffffff1681526020018373ffffffffffffffffffffffffffffffffffffffff1673ffffffffffffffffffffffffffffffffffffffff1681526020018281526020019350505050602060405180830381600087803b158015612cc957600080fd5b505af1158015612cdd573d6000803e3d6000fd5b505050506040513d6020811015612cf357600080fd5b8101908080519060200190929190505050506000808273ffffffffffffffffffffffffffffffffffffffff166389afcb44896040518263ffffffff1660e01b8152600401808273ffffffffffffffffffffffffffffffffffffffff1673ffffffffffffffffffffffffffffffffffffffff1681526020019150506040805180830381600087803b158015612d8657600080fd5b505af1158015612d9a573d6000803e3d6000fd5b505050506040513d6040811015612db057600080fd5b810190808051906020019092919080519060200190929190505050915091506000612ddb8e8e614c4f565b5090508073ffffffffffffffffffffffffffffffffffffffff168e73ffffffffffffffffffffffffffffffffffffffff1614612e18578183612e1b565b82825b80975081985050508a871015612e7c576040517f08c379a000000000000000000000000000000000000000000000000000000000815260040180806020018281038252602681526020018061534d6026913960400191505060405180910390fd5b89861015612ed5576040517f08c379a00000000000000000000000000000000000000000000000000000000081526004018080602001828103825260268152602001806152696026913960400191505060405180910390fd5b505050505097509795505050505050565b6000809054906101000a900473ffffffffffffffffffffffffffffffffffffffff1681565b606042851015612f83576040517f08c379a00000000000000000000000000000000000000000000000000000000081526004018080602001828103825260078152602001807f455850495245440000000000000000000000000000000000000000000000000081525060200191505060405180910390fd5b6000600360008c73ffffffffffffffffffffffffffffffffffffffff1673ffffffffffffffffffffffffffffffffffffffff1681526020019081526020016000206000815480929190600101919050559050600060025460405180806151ae60729139607201905060405180910390208d8d8d8d8d888e604051602001808981526020018873ffffffffffffffffffffffffffffffffffffffff1673ffffffffffffffffffffffffffffffffffffffff1681526020018781526020018673ffffffffffffffffffffffffffffffffffffffff1673ffffffffffffffffffffffffffffffffffffffff1681526020018573ffffffffffffffffffffffffffffffffffffffff1673ffffffffffffffffffffffffffffffffffffffff1681526020018473ffffffffffffffffffffffffffffffffffffffff1673ffffffffffffffffffffffffffffffffffffffff168152602001838152602001828152602001985050505050505050506040516020818303038152906040528051906020012060405160200180807f190100000000000000000000000000000000000000000000000000000000000081525060020183815260200182815260200192505050604051602081830303815290604052805190602001209050600060018288888860405160008152602001604052604051808581526020018460ff1660ff1681526020018381526020018281526020019450505050506020604051602081039080840390855afa1580156131b7573d6000803e3d6000fd5b505050602060405103519050600073ffffffffffffffffffffffffffffffffffffffff168173ffffffffffffffffffffffffffffffffffffffff161415801561322b57508c73ffffffffffffffffffffffffffffffffffffffff168173ffffffffffffffffffffffffffffffffffffffff16145b61329d576040517f08c379a00000000000000000000000000000000000000000000000000000000081526004018080602001828103825260118152602001807f494e56414c49445f5349474e415455524500000000000000000000000000000081525060200191505060405180910390fd5b606060026040519080825280602002602001820160405280156132cf5781602001602082028038833980820191505090505b5090508b816000815181106132e057fe5b602002602001019073ffffffffffffffffffffffffffffffffffffffff16908173ffffffffffffffffffffffffffffffffffffffff16815250508a8160018151811061332857fe5b602002602001019073ffffffffffffffffffffffffffffffffffffffff16908173ffffffffffffffffffffffffffffffffffffffff168152505061336c8d826133ef565b94506133d38160008151811061337e57fe5b60200260200101518f6133b98460008151811061339757fe5b6020026020010151856001815181106133ac57fe5b60200260200101516144e1565b886000815181106133c657fe5b602002602001015161460b565b6133de85828c614853565b505050509998505050505050505050565b6060600282511015613469576040517f08c379a000000000000000000000000000000000000000000000000000000000815260040180806020018281038252601d8152602001807f556e6973776170563248656c7065723a20494e56414c49445f5041544800000081525060200191505060405180910390fd5b81516040519080825280602002602001820160405280156134995781602001602082028038833980820191505090505b50905082816000815181106134aa57fe5b60200260200101818152505060005b6001835103811015613547576000806134fb8584815181106134d757fe5b60200260200101518660018601815181106134ee57fe5b6020026020010151614aa5565b9150915061351d84848151811061350e57fe5b60200260200101518383611478565b84600185018151811061352c57fe5b602002602001018181525050505080806001019150506134b9565b5092915050565b600080600061357f8d600160009054906101000a900473ffffffffffffffffffffffffffffffffffffffff166144e1565b905060008761358e578c6135b0565b7fffffffffffffffffffffffffffffffffffffffffffffffffffffffffffffffff5b90508173ffffffffffffffffffffffffffffffffffffffff1663d505accf3330848d8c8c8c6040518863ffffffff1660e01b8152600401808873ffffffffffffffffffffffffffffffffffffffff1673ffffffffffffffffffffffffffffffffffffffff1681526020018773ffffffffffffffffffffffffffffffffffffffff1673ffffffffffffffffffffffffffffffffffffffff1681526020018681526020018581526020018460ff1660ff168152602001838152602001828152602001975050505050505050600060405180830381600087803b15801561369357600080fd5b505af11580156136a7573d6000803e3d6000fd5b505050506136b98e8e8e8e8e8e611317565b809450819550505050509a509a98505050505050505050565b6000806000834281101561374e576040517f08c379a00000000000000000000000000000000000000000000000000000000081526004018080602001828103825260188152602001807f556e69737761705632526f757465723a2045585049524544000000000000000081525060200191505060405180910390fd5b61375c8c8c8c8c8c8c614dc6565b809450819550505060006137708d8d6144e1565b905061377e8d33838861460b565b61378a8c33838761460b565b8073ffffffffffffffffffffffffffffffffffffffff16636a627842886040518263ffffffff1660e01b8152600401808273ffffffffffffffffffffffffffffffffffffffff1673ffffffffffffffffffffffffffffffffffffffff168152602001915050602060405180830381600087803b15801561380957600080fd5b505af115801561381d573d6000803e3d6000fd5b505050506040513d602081101561383357600080fd5b810190808051906020019092919050505092505050985098509895505050505050565b600080600083428110156138d2576040517f08c379a00000000000000000000000000000000000000000000000000000000081526004018080602001828103825260188152602001807f556e69737761705632526f757465723a2045585049524544000000000000000081525060200191505060405180910390fd5b6139028a600160009054906101000a900473ffffffffffffffffffffffffffffffffffffffff168b348c8c614dc6565b809450819550505060006139388b600160009054906101000a900473ffffffffffffffffffffffffffffffffffffffff166144e1565b90506139468b33838861460b565b600160009054906101000a900473ffffffffffffffffffffffffffffffffffffffff1673ffffffffffffffffffffffffffffffffffffffff1663d0e30db0856040518263ffffffff1660e01b81526004016000604051808303818588803b1580156139b057600080fd5b505af11580156139c4573d6000803e3d6000fd5b5050505050600160009054906101000a900473ffffffffffffffffffffffffffffffffffffffff1673ffffffffffffffffffffffffffffffffffffffff1663a9059cbb82866040518363ffffffff1660e01b8152600401808373ffffffffffffffffffffffffffffffffffffffff1673ffffffffffffffffffffffffffffffffffffffff16815260200182815260200192505050602060405180830381600087803b158015613a7257600080fd5b505af1158015613a86573d6000803e3d6000fd5b505050506040513d6020811015613a9c57600080fd5b8101908080519060200190929190505050613ab357fe5b8073ffffffffffffffffffffffffffffffffffffffff16636a627842886040518263ffffffff1660e01b8152600401808273ffffffffffffffffffffffffffffffffffffffff1673ffffffffffffffffffffffffffffffffffffffff168152602001915050602060405180830381600087803b158015613b3257600080fd5b505af1158015613b46573d6000803e3d6000fd5b505050506040513d6020811015613b5c57600080fd5b8101908080519060200190929190505050925083341115613b8457613b8333853403614281565b5b505096509650969350505050565b60608142811015613c0b576040517f08c379a00000000000000000000000000000000000000000000000000000000081526004018080602001828103825260188152602001807f556e69737761705632526f757465723a2045585049524544000000000000000081525060200191505060405180910390fd5b600160009054906101000a900473ffffffffffffffffffffffffffffffffffffffff1673ffffffffffffffffffffffffffffffffffffffff1686866000818110613c5157fe5b9050602002013573ffffffffffffffffffffffffffffffffffffffff1673ffffffffffffffffffffffffffffffffffffffff1614613cf7576040517f08c379a000000000000000000000000000000000000000000000000000000000815260040180806020018281038252601d8152602001807f556e69737761705632526f757465723a20494e56414c49445f5041544800000081525060200191505060405180910390fd5b613d4287878780806020026020016040519081016040528093929190818152602001838360200280828437600081840152601f19601f8201169050808301925050505050505061198f565b91503482600081518110613d5257fe5b60200260200101511115613db1576040517f08c379a00000000000000000000000000000000000000000000000000000000081526004018080602001828103825260278152602001806153026027913960400191505060405180910390fd5b600160009054906101000a900473ffffffffffffffffffffffffffffffffffffffff1673ffffffffffffffffffffffffffffffffffffffff1663d0e30db083600081518110613dfc57fe5b60200260200101516040518263ffffffff1660e01b81526004016000604051808303818588803b158015613e2f57600080fd5b505af1158015613e43573d6000803e3d6000fd5b5050505050600160009054906101000a900473ffffffffffffffffffffffffffffffffffffffff1673ffffffffffffffffffffffffffffffffffffffff1663a9059cbb613ee288886000818110613e9657fe5b9050602002013573ffffffffffffffffffffffffffffffffffffffff1689896001818110613ec057fe5b9050602002013573ffffffffffffffffffffffffffffffffffffffff166144e1565b84600081518110613eef57fe5b60200260200101516040518363ffffffff1660e01b8152600401808373ffffffffffffffffffffffffffffffffffffffff1673ffffffffffffffffffffffffffffffffffffffff16815260200182815260200192505050602060405180830381600087803b158015613f6057600080fd5b505af1158015613f74573d6000803e3d6000fd5b505050506040513d6020811015613f8a57600080fd5b8101908080519060200190929190505050613fa157fe5b613fed82878780806020026020016040519081016040528093929190818152602001838360200280828437600081840152601f19601f8201169050808301925050505050505086614853565b81600081518110613ffa57fe5b602002602001015134111561402a57614029338360008151811061401a57fe5b60200260200101513403614281565b5b5095945050505050565b600060608473ffffffffffffffffffffffffffffffffffffffff166040518060400160405280601981526020017f7472616e7366657228616464726573732c75696e743235362900000000000000815250805190602001208585604051602401808373ffffffffffffffffffffffffffffffffffffffff1673ffffffffffffffffffffffffffffffffffffffff16815260200182815260200192505050604051602081830303815290604052907bffffffffffffffffffffffffffffffffffffffffffffffffffffffff19166020820180517bffffffffffffffffffffffffffffffffffffffffffffffffffffffff83818316178352505050506040518082805190602001908083835b60208310614161578051825260208201915060208101905060208303925061413e565b6001836020036101000a0380198251168184511680821785525050505050509050019150506000604051808303816000865af19150503d80600081146141c3576040519150601f19603f3d011682016040523d82523d6000602084013e6141c8565b606091505b5091509150818015614208575060008151148061420757508080602001905160208110156141f557600080fd5b81019080805190602001909291905050505b5b61427a576040517f08c379a00000000000000000000000000000000000000000000000000000000081526004018080602001828103825260208152602001807f556e69737761705632526f757465723a205452414e534645525f4641494c454481525060200191505060405180910390fd5b5050505050565b60008273ffffffffffffffffffffffffffffffffffffffff168260006040519080825280601f01601f1916602001820160405280156142cf5781602001600182028038833980820191505090505b506040518082805190602001908083835b6020831061430357805182526020820191506020810190506020830392506142e0565b6001836020036101000a03801982511681845116808217855250505050505090500191505060006040518083038185875af1925050503d8060008114614365576040519150601f19603f3d011682016040523d82523d6000602084013e61436a565b606091505b50509050806143c4576040517f08c379a00000000000000000000000000000000000000000000000000000000081526004018080602001828103825260248152602001806153296024913960400191505060405180910390fd5b505050565b6000808214806143e657508282838502925082816143e357fe5b04145b614458576040517f08c379a00000000000000000000000000000000000000000000000000000000081526004018080602001828103825260148152602001807f64732d6d6174682d6d756c2d6f766572666c6f7700000000000000000000000081525060200191505060405180910390fd5b92915050565b60008282840191508110156144db576040517f08c379a00000000000000000000000000000000000000000000000000000000081526004018080602001828103825260148152602001807f64732d6d6174682d6164642d6f766572666c6f7700000000000000000000000081525060200191505060405180910390fd5b92915050565b60008060006144f08585614c4f565b915091506000809054906101000a900473ffffffffffffffffffffffffffffffffffffffff1673ffffffffffffffffffffffffffffffffffffffff1663e6a4390583836040518363ffffffff1660e01b8152600401808373ffffffffffffffffffffffffffffffffffffffff1673ffffffffffffffffffffffffffffffffffffffff1681526020018273ffffffffffffffffffffffffffffffffffffffff1673ffffffffffffffffffffffffffffffffffffffff1681526020019250505060206040518083038186803b1580156145c657600080fd5b505afa1580156145da573d6000803e3d6000fd5b505050506040513d60208110156145f057600080fd5b81019080805190602001909291905050509250505092915050565b600060608573ffffffffffffffffffffffffffffffffffffffff166040518060600160405280602581526020016152206025913980519060200120868686604051602401808473ffffffffffffffffffffffffffffffffffffffff1673ffffffffffffffffffffffffffffffffffffffff1681526020018373ffffffffffffffffffffffffffffffffffffffff1673ffffffffffffffffffffffffffffffffffffffff1681526020018281526020019350505050604051602081830303815290604052907bffffffffffffffffffffffffffffffffffffffffffffffffffffffff19166020820180517bffffffffffffffffffffffffffffffffffffffffffffffffffffffff83818316178352505050506040518082805190602001908083835b6020831061474f578051825260208201915060208101905060208303925061472c565b6001836020036101000a0380198251168184511680821785525050505050509050019150506000604051808303816000865af19150503d80600081146147b1576040519150601f19603f3d011682016040523d82523d6000602084013e6147b6565b606091505b50915091508180156147f657506000815114806147f557508080602001905160208110156147e357600080fd5b81019080805190602001909291905050505b5b61484b576040517f08c379a00000000000000000000000000000000000000000000000000000000081526004018080602001828103825260258152602001806152dd6025913960400191505060405180910390fd5b505050505050565b60005b6001835103811015614a9f5760008084838151811061487157fe5b602002602001015185600185018151811061488857fe5b60200260200101519150915060006148a08383614c4f565b50905060008760018601815181106148b457fe5b602002602001015190506000808373ffffffffffffffffffffffffffffffffffffffff168673ffffffffffffffffffffffffffffffffffffffff16146148fc57826000614900565b6000835b91509150600060028a510388106149175788614938565b614937868b60028b018151811061492a57fe5b60200260200101516144e1565b5b905061494487876144e1565b73ffffffffffffffffffffffffffffffffffffffff1663022c0d9f84848460006040519080825280601f01601f1916602001820160405280156149965781602001600182028038833980820191505090505b506040518563ffffffff1660e01b8152600401808581526020018481526020018373ffffffffffffffffffffffffffffffffffffffff1673ffffffffffffffffffffffffffffffffffffffff16815260200180602001828103825283818151815260200191508051906020019080838360005b83811015614a24578082015181840152602081019050614a09565b50505050905090810190601f168015614a515780820380516001836020036101000a031916815260200191505b5095505050505050600060405180830381600087803b158015614a7357600080fd5b505af1158015614a87573d6000803e3d6000fd5b50505050505050505050508080600101915050614856565b50505050565b6000806000614ab48585614c4f565b509050600080614ac487876144e1565b73ffffffffffffffffffffffffffffffffffffffff16630902f1ac6040518163ffffffff1660e01b815260040160606040518083038186803b158015614b0957600080fd5b505afa158015614b1d573d6000803e3d6000fd5b505050506040513d6060811015614b3357600080fd5b81019080805190602001909291908051906020019092919080519060200190929190505050506dffffffffffffffffffffffffffff1691506dffffffffffffffffffffffffffff1691508273ffffffffffffffffffffffffffffffffffffffff168773ffffffffffffffffffffffffffffffffffffffff1614614bb7578082614bba565b81815b80955081965050505050509250929050565b6000828284039150811115614c49576040517f08c379a00000000000000000000000000000000000000000000000000000000081526004018080602001828103825260158152602001807f64732d6d6174682d7375622d756e646572666c6f77000000000000000000000081525060200191505060405180910390fd5b92915050565b6000808273ffffffffffffffffffffffffffffffffffffffff168473ffffffffffffffffffffffffffffffffffffffff161415614cd7576040517f08c379a00000000000000000000000000000000000000000000000000000000081526004018080602001828103825260248152602001806152456024913960400191505060405180910390fd5b8273ffffffffffffffffffffffffffffffffffffffff168473ffffffffffffffffffffffffffffffffffffffff1610614d11578284614d14565b83835b8092508193505050600073ffffffffffffffffffffffffffffffffffffffff168273ffffffffffffffffffffffffffffffffffffffff161415614dbf576040517f08c379a000000000000000000000000000000000000000000000000000000000815260040180806020018281038252601d8152602001807f556e6973776170563248656c7065723a205a45524f5f4144445245535300000081525060200191505060405180910390fd5b9250929050565b600080600073ffffffffffffffffffffffffffffffffffffffff166000809054906101000a900473ffffffffffffffffffffffffffffffffffffffff1673ffffffffffffffffffffffffffffffffffffffff1663e6a439058a8a6040518363ffffffff1660e01b8152600401808373ffffffffffffffffffffffffffffffffffffffff1673ffffffffffffffffffffffffffffffffffffffff1681526020018273ffffffffffffffffffffffffffffffffffffffff1673ffffffffffffffffffffffffffffffffffffffff1681526020019250505060206040518083038186803b158015614eb357600080fd5b505afa158015614ec7573d6000803e3d6000fd5b505050506040513d6020811015614edd57600080fd5b810190808051906020019092919050505073ffffffffffffffffffffffffffffffffffffffff16141561501b576000809054906101000a900473ffffffffffffffffffffffffffffffffffffffff1673ffffffffffffffffffffffffffffffffffffffff1663c9c6539689896040518363ffffffff1660e01b8152600401808373ffffffffffffffffffffffffffffffffffffffff1673ffffffffffffffffffffffffffffffffffffffff1681526020018273ffffffffffffffffffffffffffffffffffffffff1673ffffffffffffffffffffffffffffffffffffffff16815260200192505050602060405180830381600087803b158015614fde57600080fd5b505af1158015614ff2573d6000803e3d6000fd5b505050506040513d602081101561500857600080fd5b8101908080519060200190929190505050505b6000806150288a8a614aa5565b9150915060008214801561503c5750600081145b15615050578787809450819550505061514e565b600061505d898484612aa2565b90508781116150ce57858110156150bf576040517f08c379a00000000000000000000000000000000000000000000000000000000081526004018080602001828103825260268152602001806152696026913960400191505060405180910390fd5b8881809550819650505061514c565b60006150db898486612aa2565b9050898111156150e757fe5b87811015615140576040517f08c379a000000000000000000000000000000000000000000000000000000000815260040180806020018281038252602681526020018061534d6026913960400191505060405180910390fd5b80898096508197505050505b505b505096509694505050505056fe556e6973776170563248656c7065723a20494e53554646494349454e545f4c4951554944495459556e6973776170563248656c7065723a20494e53554646494349454e545f4f55545055545f414d4f554e545377617028616464726573732066726f6d2c75696e7432353620616d6f756e742c6164647265737320696e707574546f6b656e2c61646472657373206f7574707574546f6b656e2c6164647265737320746f2c75696e74323536206e6f6e63652c75696e7432353620646561646c696e65297472616e7366657246726f6d28616464726573732c616464726573732c75696e7432353629556e6973776170563248656c7065723a204944454e544943414c5f414444524553534553556e69737761705632526f757465723a20494e53554646494349454e545f425f414d4f554e54556e6973776170563248656c7065723a20494e53554646494349454e545f494e5055545f414d4f554e54556e6973776170563248656c7065723a20494e53554646494349454e545f414d4f554e54556e69737761705632526f757465723a205452414e534645525f46524f4d5f4641494c4544556e69737761705632526f757465723a204558434553534956455f494e5055545f414d4f554e54556e69737761705632526f757465723a204554485f5452414e534645525f4641494c4544556e69737761705632526f757465723a20494e53554646494349454e545f415f414d4f554e54556e69737761705632526f757465723a20494e53554646494349454e545f4f55545055545f414d4f554e54a265627a7a7231582087f49853d558e5fbf2699fe097010c78a6c943517203d7aa7ca1c23d951d2f1b64736f6c63430005100032454950373132446f6d61696e28737472696e67206e616d652c737472696e672076657273696f6e2c75696e7432353620636861696e49642c6164647265737320766572696679696e67436f6e747261637429",
  "source": "pragma solidity =0.5.16;\n\nimport './interfaces/IUniswapV2Router01.sol';\nimport './UniswapV2Library.sol';\nimport './interfaces/IWETH.sol';\n//import './EIP712MetaTransaction.sol';\n\ncontract UniswapV2Router01Gasless is IUniswapV2Router01, UniswapV2Library{\n    bytes4 private constant SELECTOR_TRANSFER = bytes4(keccak256(bytes('transfer(address,uint256)')));\n    bytes4 private constant SELECTOR_TRANSFER_FROM = bytes4(keccak256(bytes('transferFrom(address,address,uint256)')));\n\n    IWETH public WETH;\n    bytes32 public DOMAIN_SEPARATOR;\n    // keccak256(\"Swap(address from,uint256 amount,address inputToken,address outputToken,address to,uint256 deadline)\");\n    bytes32 public constant SWAP_TYPEHASH = keccak256(\"Swap(address from,uint256 amount,address inputToken,address outputToken,address to,uint256 nonce,uint256 deadline)\");\n    mapping(address => uint) public nonces;\n\n\n    // **** TRANSFER HELPERS ****\n    function _safeTransfer(address token, address to, uint value) private {\n        (bool success, bytes memory data) = token.call(abi.encodeWithSelector(SELECTOR_TRANSFER, to, value));\n        require(success && (data.length == 0 || abi.decode(data, (bool))), 'UniswapV2Router: TRANSFER_FAILED');\n    }\n    function _safeTransferFrom(address token, address from, address to, uint value) private {\n        (bool success, bytes memory data) = token.call(abi.encodeWithSelector(SELECTOR_TRANSFER_FROM, from, to, value));\n        require(success && (data.length == 0 || abi.decode(data, (bool))), 'UniswapV2Router: TRANSFER_FROM_FAILED');\n    }\n    function _safeTransferETH(address to, uint value) private {\n        (bool success,) = to.call.value(value)(new bytes(0));\n        require(success, 'UniswapV2Router: ETH_TRANSFER_FAILED');\n    }\n\n    modifier ensure(uint deadline) {\n        require(deadline >= block.timestamp, 'UniswapV2Router: EXPIRED');\n        _;\n    }\n\n    constructor(address _WETH,address _factoryAddress,uint _chainId) UniswapV2Library(_factoryAddress) public {\n        WETH = IWETH(_WETH);\n        // uint chainId;\n        // assembly {\n        //   chainId := chainid\n        // }\n        DOMAIN_SEPARATOR = keccak256(\n          abi.encode(\n            keccak256('EIP712Domain(string name,string version,uint256 chainId,address verifyingContract)'),\n            keccak256(bytes('UniswapV2Router01')),\n            keccak256(bytes('1')),\n            _chainId,\n            address(this)\n          )\n        );\n    }\n\n    function() external payable {\n        assert(msg.sender == address(WETH)); // only accept ETH via fallback from the WETH contract\n    }\n\n    // **** ADD LIQUIDITY ****\n    function _addLiquidity(\n        address tokenA,\n        address tokenB,\n        uint amountADesired,\n        uint amountBDesired,\n        uint amountAMin,\n        uint amountBMin\n    ) private returns (uint amountA, uint amountB) {\n        // create the pair if it doesn't exist yet\n        if (factory.getPair(tokenA, tokenB) == address(0)) factory.createPair(tokenA, tokenB);\n        (uint reserveA, uint reserveB) = getReserves(tokenA, tokenB);\n        if (reserveA == 0 && reserveB == 0) {\n            (amountA, amountB) = (amountADesired, amountBDesired);\n        } else {\n            uint amountBOptimal = quote(amountADesired, reserveA, reserveB);\n            if (amountBOptimal <= amountBDesired) {\n                require(amountBOptimal >= amountBMin, 'UniswapV2Router: INSUFFICIENT_B_AMOUNT');\n                (amountA, amountB) = (amountADesired, amountBOptimal);\n            } else {\n                uint amountAOptimal = quote(amountBDesired, reserveB, reserveA);\n                assert(amountAOptimal <= amountADesired);\n                require(amountAOptimal >= amountAMin, 'UniswapV2Router: INSUFFICIENT_A_AMOUNT');\n                (amountA, amountB) = (amountAOptimal, amountBDesired);\n            }\n        }\n    }\n    function addLiquidity(\n        address tokenA,\n        address tokenB,\n        uint amountADesired,\n        uint amountBDesired,\n        uint amountAMin,\n        uint amountBMin,\n        address to,\n        uint deadline\n    ) external ensure(deadline) returns (uint amountA, uint amountB, uint liquidity) {\n        (amountA, amountB) = _addLiquidity(tokenA, tokenB, amountADesired, amountBDesired, amountAMin, amountBMin);\n        address pair = pairFor(tokenA, tokenB);\n        _safeTransferFrom(tokenA, msg.sender, pair, amountA);\n        _safeTransferFrom(tokenB, msg.sender, pair, amountB);\n        liquidity = IUniswapV2Pair(pair).mint(to);\n    }\n    function addLiquidityETH(\n        address token,\n        uint amountTokenDesired,\n        uint amountTokenMin,\n        uint amountETHMin,\n        address to,\n        uint deadline\n    ) external payable ensure(deadline) returns (uint amountToken, uint amountETH, uint liquidity) {\n        (amountToken, amountETH) = _addLiquidity(\n            token,\n            address(WETH),\n            amountTokenDesired,\n            msg.value,\n            amountTokenMin,\n            amountETHMin\n        );\n        address pair = pairFor(token, address(WETH));\n        _safeTransferFrom(token, msg.sender, pair, amountToken);\n        WETH.deposit.value(amountETH)();\n        assert(WETH.transfer(pair, amountETH));\n        liquidity = IUniswapV2Pair(pair).mint(to);\n        if (msg.value > amountETH) _safeTransferETH(msg.sender, msg.value - amountETH); // refund dust eth, if any\n    }\n\n    // **** REMOVE LIQUIDITY ****\n    function removeLiquidity(\n        address tokenA,\n        address tokenB,\n        uint liquidity,\n        uint amountAMin,\n        uint amountBMin,\n        address to,\n        uint deadline\n    ) public ensure(deadline) returns (uint amountA, uint amountB) {\n        address pair = pairFor(tokenA, tokenB);\n        IUniswapV2Pair(pair).transferFrom(msg.sender, pair, liquidity); // send liquidity to pair\n        (uint amount0, uint amount1) = IUniswapV2Pair(pair).burn(to);\n        (address token0,) = sortTokens(tokenA, tokenB);\n        (amountA, amountB) = tokenA == token0 ? (amount0, amount1) : (amount1, amount0);\n        require(amountA >= amountAMin, 'UniswapV2Router: INSUFFICIENT_A_AMOUNT');\n        require(amountB >= amountBMin, 'UniswapV2Router: INSUFFICIENT_B_AMOUNT');\n    }\n    function removeLiquidityETH(\n        address token,\n        uint liquidity,\n        uint amountTokenMin,\n        uint amountETHMin,\n        address to,\n        uint deadline\n    ) public ensure(deadline) returns (uint amountToken, uint amountETH) {\n        (amountToken, amountETH) = removeLiquidity(\n            token,\n            address(WETH),\n            liquidity,\n            amountTokenMin,\n            amountETHMin,\n            address(this),\n            deadline\n        );\n        _safeTransfer(token, to, amountToken);\n        WETH.withdraw(amountETH);\n        _safeTransferETH(to, amountETH);\n    }\n    function removeLiquidityWithPermit(\n        address tokenA,\n        address tokenB,\n        uint liquidity,\n        uint amountAMin,\n        uint amountBMin,\n        address to,\n        uint deadline,\n        bool approveMax, uint8 v, bytes32 r, bytes32 s\n    ) external returns (uint amountA, uint amountB) {\n        address pair = pairFor(tokenA, tokenB);\n        uint value = approveMax ? uint(-1) : liquidity;\n        IUniswapV2Pair(pair).permit(msg.sender, address(this), value, deadline, v, r, s);\n        (amountA, amountB) = removeLiquidity(tokenA, tokenB, liquidity, amountAMin, amountBMin, to, deadline);\n    }\n    function removeLiquidityETHWithPermit(\n        address token,\n        uint liquidity,\n        uint amountTokenMin,\n        uint amountETHMin,\n        address to,\n        uint deadline,\n        bool approveMax, uint8 v, bytes32 r, bytes32 s\n    ) external returns (uint amountToken, uint amountETH) {\n        address pair = pairFor(token, address(WETH));\n        uint value = approveMax ? uint(-1) : liquidity;\n        IUniswapV2Pair(pair).permit(msg.sender, address(this), value, deadline, v, r, s);\n        (amountToken, amountETH) = removeLiquidityETH(token, liquidity, amountTokenMin, amountETHMin, to, deadline);\n    }\n\n    // **** SWAP ****\n    // requires the initial amount to have already been sent to the first pair\n    function _swap(uint[] memory amounts, address[] memory path, address _to) private {\n        for (uint i; i < path.length - 1; i++) {\n            (address input, address output) = (path[i], path[i + 1]);\n            (address token0,) = sortTokens(input, output);\n            uint amountOut = amounts[i + 1];\n            (uint amount0Out, uint amount1Out) = input == token0 ? (uint(0), amountOut) : (amountOut, uint(0));\n            address to = i < path.length - 2 ? pairFor(output, path[i + 2]) : _to;\n            IUniswapV2Pair(pairFor(input, output)).swap(amount0Out, amount1Out, to, new bytes(0));\n        }\n    }\n    function swapExactTokensForTokens(\n        uint amountIn,\n        uint amountOutMin,\n        address[] calldata path,\n        address to,\n        uint deadline\n    ) external ensure(deadline) returns (uint[] memory amounts) {\n        amounts = getAmountsOut(amountIn, path);\n        require(amounts[amounts.length - 1] >= amountOutMin, 'UniswapV2Router: INSUFFICIENT_OUTPUT_AMOUNT');\n        _safeTransferFrom(path[0], msg.sender, pairFor(path[0], path[1]), amounts[0]);\n        _swap(amounts, path, to);\n    }\n    function swapTokensForExactTokens(\n        uint amountOut,\n        uint amountInMax,\n        address[] calldata path,\n        address to,\n        uint deadline\n    ) external ensure(deadline) returns (uint[] memory amounts) {\n        amounts = getAmountsIn(amountOut, path);\n        require(amounts[0] <= amountInMax, 'UniswapV2Router: EXCESSIVE_INPUT_AMOUNT');\n        _safeTransferFrom(path[0], msg.sender, pairFor(path[0], path[1]), amounts[0]);\n        _swap(amounts, path, to);\n    }\n    function swapExactETHForTokens(uint amountOutMin, address[] calldata path, address to, uint deadline)\n        external\n        payable\n        ensure(deadline)\n        returns (uint[] memory amounts)\n    {\n        require(path[0] == address(WETH), 'UniswapV2Router: INVALID_PATH');\n        amounts = getAmountsOut(msg.value, path);\n        require(amounts[amounts.length - 1] >= amountOutMin, 'UniswapV2Router: INSUFFICIENT_OUTPUT_AMOUNT');\n        WETH.deposit.value(amounts[0])();\n        assert(WETH.transfer(pairFor(path[0], path[1]), amounts[0]));\n        _swap(amounts, path, to);\n    }\n    function swapTokensForExactETH(uint amountOut, uint amountInMax, address[] calldata path, address to, uint deadline)\n        external\n        ensure(deadline)\n        returns (uint[] memory amounts)\n    {\n        require(path[path.length - 1] == address(WETH), 'UniswapV2Router: INVALID_PATH');\n        amounts = getAmountsIn(amountOut, path);\n        require(amounts[0] <= amountInMax, 'UniswapV2Router: EXCESSIVE_INPUT_AMOUNT');\n        _safeTransferFrom(path[0], msg.sender, pairFor(path[0], path[1]), amounts[0]);\n        _swap(amounts, path, address(this));\n        WETH.withdraw(amounts[amounts.length - 1]);\n        _safeTransferETH(to, amounts[amounts.length - 1]);\n    }\n    function swapExactTokensForETH(uint amountIn, uint amountOutMin, address[] calldata path, address to, uint deadline)\n        external\n        ensure(deadline)\n        returns (uint[] memory amounts)\n    {\n        require(path[path.length - 1] == address(WETH), 'UniswapV2Router: INVALID_PATH');\n        amounts = getAmountsOut(amountIn, path);\n        require(amounts[amounts.length - 1] >= amountOutMin, 'UniswapV2Router: INSUFFICIENT_OUTPUT_AMOUNT');\n        _safeTransferFrom(path[0], msg.sender, pairFor(path[0], path[1]), amounts[0]);\n        _swap(amounts, path, address(this));\n        WETH.withdraw(amounts[amounts.length - 1]);\n        _safeTransferETH(to, amounts[amounts.length - 1]);\n    }\n    function swapETHForExactTokens(uint amountOut, address[] calldata path, address to, uint deadline)\n        external\n        payable\n        ensure(deadline)\n        returns (uint[] memory amounts)\n    {\n        require(path[0] == address(WETH), 'UniswapV2Router: INVALID_PATH');\n        amounts = getAmountsIn(amountOut, path);\n        require(amounts[0] <= msg.value, 'UniswapV2Router: EXCESSIVE_INPUT_AMOUNT');\n        WETH.deposit.value(amounts[0])();\n        assert(WETH.transfer(pairFor(path[0], path[1]), amounts[0]));\n        _swap(amounts, path, to);\n        if (msg.value > amounts[0]) _safeTransferETH(msg.sender, msg.value - amounts[0]); // refund dust eth, if any\n    }\n    function swap(address from,uint256 amount,address inputToken,address outputToken,address to,uint256 deadline,uint8 v, bytes32 r, bytes32 s) external returns (uint[] memory amounts) {\n      require(deadline >= block.timestamp, 'EXPIRED');\n      uint _nonce = nonces[from]++;\n      bytes32 digest = keccak256(\n        abi.encodePacked(\n          '\\x19\\x01',\n          DOMAIN_SEPARATOR,\n          keccak256(abi.encode(SWAP_TYPEHASH, from, amount, inputToken, outputToken, to,_nonce,deadline))\n        )\n      );\n      address recoveredAddress = ecrecover(digest, v, r, s);\n      require(recoveredAddress != address(0) && recoveredAddress == from, 'INVALID_SIGNATURE');\n      address[] memory path = new address[](2);\n      path[0] = inputToken;\n      path[1]=outputToken;\n      amounts = getAmountsOut(amount, path);\n      _safeTransferFrom(path[0], from, pairFor(path[0], path[1]), amounts[0]);\n      _swap(amounts, path, to);\n    }\n}\n",
  "sourcePath": "/home/safu/ethereum/maticUniswap/forgit/final/maticUniswap/contracts/UniswapV2Router01.sol",
  "compiler": {
    "name": "solc",
    "version": "0.5.16+commit.9c3226ce.Emscripten.clang"
  },
  "schemaVersion": "3.0.23",
  "updatedAt": "2020-04-13T14:21:43.209Z",
  "networkType": "ethereum",
  "devdoc": {
    "methods": {}
  },
  "userdoc": {
    "methods": {}
  }
}